{
  "contractName": "Interval",
  "abi": [
    {
      "constant": false,
      "inputs": [
        {
          "name": "_getAddr",
          "type": "address"
        }
      ],
      "name": "getAddress",
      "outputs": [],
      "payable": false,
      "stateMutability": "nonpayable",
      "type": "function"
    },
    {
      "constant": false,
      "inputs": [],
      "name": "trigger",
      "outputs": [],
      "payable": false,
      "stateMutability": "nonpayable",
      "type": "function"
    },
    {
      "constant": true,
      "inputs": [],
      "name": "getAddrLen",
      "outputs": [
        {
          "name": "",
          "type": "address[]"
        }
      ],
      "payable": false,
      "stateMutability": "view",
      "type": "function"
    },
    {
      "constant": true,
      "inputs": [],
      "name": "getTestNum",
      "outputs": [
        {
          "name": "",
          "type": "uint256"
        },
        {
          "name": "",
          "type": "uint256"
        }
      ],
      "payable": false,
      "stateMutability": "view",
      "type": "function"
    },
    {
      "constant": true,
      "inputs": [],
      "name": "getFlag",
      "outputs": [
        {
          "name": "",
          "type": "bool"
        }
      ],
      "payable": false,
      "stateMutability": "view",
      "type": "function"
    },
    {
      "constant": false,
      "inputs": [
        {
          "name": "_addr",
          "type": "address"
        }
      ],
      "name": "chargeExist",
      "outputs": [
        {
          "name": "",
          "type": "bool"
        }
      ],
      "payable": false,
      "stateMutability": "nonpayable",
      "type": "function"
    },
    {
      "constant": false,
      "inputs": [
        {
          "name": "contractAddr",
          "type": "address"
        }
      ],
      "name": "callFeed",
      "outputs": [],
      "payable": false,
      "stateMutability": "nonpayable",
      "type": "function"
    }
  ],
  "bytecode": "0x6080604052600060015560006002556000600360006101000a81548160ff02191690831515021790555034801561003557600080fd5b50610579806100456000396000f300608060405260043610610083576000357c0100000000000000000000000000000000000000000000000000000000900463ffffffff16806350566375146100885780637fec8d38146100ba5780638237f879146100d1578063a44c7d621461012c578063ae22c57d14610198578063e30a8a25146101db578063f96339301461021e575b600080fd5b34801561009457600080fd5b5061009d61024d565b604051808381526020018281526020019250505060405180910390f35b3480156100c657600080fd5b506100cf61025e565b005b3480156100dd57600080fd5b50610112600480360381019080803573ffffffffffffffffffffffffffffffffffffffff169060200190929190505050610302565b604051808215151515815260200191505060405180910390f35b34801561013857600080fd5b506101416103a5565b6040518080602001828103825283818151815260200191508051906020019060200280838360005b83811015610184578082015181840152602081019050610169565b505050509050019250505060405180910390f35b3480156101a457600080fd5b506101d9600480360381019080803573ffffffffffffffffffffffffffffffffffffffff169060200190929190505050610433565b005b3480156101e757600080fd5b5061021c600480360381019080803573ffffffffffffffffffffffffffffffffffffffff16906020019092919050505061049c565b005b34801561022a57600080fd5b50610233610536565b604051808215151515815260200191505060405180910390f35b600080600154600254915091509091565b600080600360006101000a81548160ff021916908315150217905550600260008154809291906001019190505550600090505b6000805490508110156102ff576001600081548092919060010191905055506102f26000828154811015156102c257fe5b9060005260206000200160009054906101000a900473ffffffffffffffffffffffffffffffffffffffff1661049c565b8080600101915050610291565b50565b6000806000809150600090505b60008054905081101561039b578373ffffffffffffffffffffffffffffffffffffffff1660008281548110151561034257fe5b9060005260206000200160009054906101000a900473ffffffffffffffffffffffffffffffffffffffff1673ffffffffffffffffffffffffffffffffffffffff16141561038e57600191505b808060010191505061030f565b8192505050919050565b6060600080548060200260200160405190810160405280929190818152602001828054801561042957602002820191906000526020600020905b8160009054906101000a900473ffffffffffffffffffffffffffffffffffffffff1673ffffffffffffffffffffffffffffffffffffffff16815260200190600101908083116103df575b5050505050905090565b60008190806001815401808255809150509060018203906000526020600020016000909192909190916101000a81548173ffffffffffffffffffffffffffffffffffffffff021916908373ffffffffffffffffffffffffffffffffffffffff1602179055505050565b6001600360006101000a81548160ff0219169083151502179055508073ffffffffffffffffffffffffffffffffffffffff1663de2927896040518163ffffffff167c0100000000000000000000000000000000000000000000000000000000028152600401600060405180830381600087803b15801561051b57600080fd5b505af115801561052f573d6000803e3d6000fd5b5050505050565b6000600360009054906101000a900460ff169050905600a165627a7a7230582025960505e75d61f4de78218b0f70944fbfce8b3b0539698630efbb5c0db082900029",
  "source": "pragma solidity ^0.4.0;\r\n\r\ncontract PlayGame {\r\n    int uNumTest = 0; // test\r\n    uint xor = 0; // 保存异或的值\r\n    uint [] randomNum; // 保存传入的随机数\r\n    address [] dragon;  // 保存选龙的地址\r\n    mapping(address => uint) dragonMap; // 选龙用户的下注金额 需要清空\r\n    address [] tiger;   // 保存选虎的地址\r\n    mapping(address => uint) tigerMap; // 选虎用户的下注金额\r\n    address [] draw;    // 保存选合的地址\r\n    mapping(address => uint) drawMap; // 选合用户的下注金额\r\n    uint time = 0; // 保存上一次结算时出块时间戳\r\n    uint totalCoins = 0; // 当前局下注总币\r\n    uint historyTotalCoins = 0; // 历史下注总币\r\n    uint dragonCoins = 0; // 下注龙总币\r\n    uint tigerCoins = 0; // 下注虎总币\r\n    uint drawCoins = 0; // 下注合总币\r\n    uint [] resultHistory; // 保存历史结果\r\n    uint [] currentResult = [0, 0]; // 保存当前局结算后的龙虎值\r\n    // 在全局获取的msg.sender为创建者的地址\r\n    // 在函数中获取的msg.sender为当前调用者的地址\r\n    // 函数中返回的this指当前合约地址\r\n    address creator = msg.sender;\r\n    uint [] price;\r\n    // 返回是否下注成功\r\n    event returnBetResult(bool _bool);\r\n    // 返回最终结果\r\n\r\n    function deposit() payable {\r\n\r\n    }\r\n\r\n    function PlayGame(uint price1, uint price2, uint price3, uint _type){\r\n        price = [price1, price2, price3, _type];\r\n    }\r\n    // 获取自己设置的下注金额列表\r\n    function getPrice() constant returns (uint []){\r\n        return price;\r\n    }\r\n\r\n    function getBlockTime() constant returns (uint, uint, uint, address, uint [],int){\r\n        return (time, block.timestamp, xor, creator, currentResult,uNumTest);\r\n    }\r\n    // 获取最后五局的结果\r\n    function getResultHistory() constant returns (uint []){\r\n        return resultHistory;\r\n    }\r\n\r\n    // 下注传入信息\r\n    // 如果下注金额大于当前奖池金额，返回false，下注失败\r\n    function sendBetInfo(address addr, uint cho, uint ran, uint coin) payable {\r\n        totalCoins += coin;\r\n        historyTotalCoins += coin;\r\n        deposit();\r\n        if (getCurrentBalance() / 10 < totalCoins) {\r\n            returnBetResult(false);\r\n        } else {\r\n            if (cho == 0) {\r\n                bool flag0 = false;\r\n                for (uint i = 0; i < dragon.length; i++) {\r\n                    if (dragon[i] == addr) {\r\n                        flag0 = true;\r\n                        break;\r\n                    }\r\n                }\r\n                if (!flag0) {\r\n                    dragon.push(addr);\r\n                }\r\n                dragonMap[addr] = dragonMap[addr] == 0 ? (dragonMap[addr] + coin) : coin;\r\n                dragonCoins += coin;\r\n            } else if (cho == 1) {\r\n                bool flag1 = false;\r\n                for (uint j = 0; j < tiger.length; j++) {\r\n                    if (tiger[j] == addr) {\r\n                        flag1 = true;\r\n                        break;\r\n                    }\r\n                }\r\n                if (!flag1) {\r\n                    tiger.push(addr);\r\n                }\r\n                tigerMap[addr] = tigerMap[addr] == 0 ? (tigerMap[addr] + coin) : coin;\r\n                tigerCoins += coin;\r\n            } else if (cho == 2) {\r\n                bool flag2 = false;\r\n                for (uint k = 0; k < draw.length; k++) {\r\n                    if (draw[i] == addr) {\r\n                        flag2 = true;\r\n                        break;\r\n                    }\r\n                }\r\n                if (!flag2) {\r\n                    draw.push(addr);\r\n                }\r\n                drawMap[addr] = drawMap[addr] == 0 ? (drawMap[addr] + coin) : coin;\r\n                drawCoins += coin;\r\n            }\r\n            randomNum.push(ran);\r\n            returnBetResult(true);\r\n        }\r\n    }\r\n\r\n    // 异或函数,得到结果随机数\r\n    function xorFun() public {\r\n        for (uint i = 0; i < randomNum.length; i++) {\r\n            xor = xor ^ randomNum[i];\r\n        }\r\n    }\r\n\r\n    // 获取当前出块时间戳 (单位是秒)\r\n    function getTimestamp() constant returns (uint) {\r\n        return block.timestamp;\r\n    }\r\n\r\n    // 处理这个随机数,得到2个值\r\n    function getXorPerson(uint number, uint start, uint long) private returns (uint) {\r\n        uint num = (number % (10 ** (13 - start))) / (10 ** (13 - start - long));\r\n        return num;\r\n    }\r\n\r\n    // num1 => 龙\r\n    // num2 => 虎\r\n    function processXor() payable {\r\n        uint num1 = getXorPerson(xor, 2, 4) % 52;\r\n        uint num2 = getXorPerson(xor, 8, 4) % 52;\r\n        uint dNum = num1 % 13;\r\n        uint tNum = num2 % 13;\r\n        uint nSize = 50;\r\n        if (dNum > tNum) {\r\n            for (uint i = 0; i < dragon.length; i++) {\r\n                transferCoin(dragon[i], dragonMap[dragon[i]] * 2);\r\n            }\r\n            if (resultHistory.length < nSize) {\r\n                resultHistory.push(0);\r\n            } else {\r\n                for (uint o = 0; o < resultHistory.length - 1; o++) {\r\n                    resultHistory[o] = resultHistory[o + 1];\r\n                }\r\n                resultHistory[resultHistory.length - 1] = 0;\r\n            }\r\n        } else if (dNum < tNum) {\r\n            for (uint j = 0; j < tiger.length; j++) {\r\n                transferCoin(tiger[j], tigerMap[tiger[j]] * 2);\r\n            }\r\n            if (resultHistory.length < nSize) {\r\n                resultHistory.push(1);\r\n            } else {\r\n                for (uint p = 0; p < resultHistory.length - 1; p++) {\r\n                    resultHistory[p] = resultHistory[p + 1];\r\n                }\r\n                resultHistory[resultHistory.length - 1] = 1;\r\n            }\r\n        } else {\r\n            for (uint k = 0; k < draw.length; k++) {\r\n                transferCoin(draw[k], drawMap[draw[k]] * 8);\r\n            }\r\n            if (resultHistory.length < nSize) {\r\n                resultHistory.push(2);\r\n            } else {\r\n                for (uint q = 0; q < resultHistory.length - 1; q++) {\r\n                    resultHistory[q] = resultHistory[q + 1];\r\n                }\r\n                resultHistory[resultHistory.length - 1] = 2;\r\n            }\r\n        }\r\n        currentResult[0] = num1;\r\n        currentResult[1] = num2;\r\n    }\r\n\r\n    // 转账函数\r\n    function transferCoin(address _to, uint _coins) {\r\n        _to.transfer(_coins);\r\n    }\r\n    // 提现函数,只有创建者账户可以提现\r\n    function drawings(uint _coin) payable {\r\n        if (msg.sender == creator) {\r\n            uint _balance = getCurrentBalance();\r\n            if ((_balance - _coin) / 10 > totalCoins) {\r\n                transferCoin(creator, _coin);\r\n            }\r\n        }\r\n    }\r\n    // 结算函数\r\n    function getResult() {\r\n        if(getTimestamp() - time > 10)\r\n        {\r\n            uNumTest++;\r\n            //异或后得到了12位的随机数\r\n            xorFun();\r\n            processXor();\r\n            reset();\r\n        }\r\n\r\n    }\r\n    // 重置函数\r\n    function reset(){\r\n        xor = 0;\r\n        time = getTimestamp();\r\n        randomNum.length = 0;\r\n        dragon.length = 0;\r\n        tiger.length = 0;\r\n        draw.length = 0;\r\n        totalCoins = 0;\r\n        dragonCoins = 0;\r\n        tigerCoins = 0;\r\n        drawCoins = 0;\r\n    }\r\n    // 返回当前合约账户的余额\r\n    function getCurrentBalance() constant returns (uint256) {\r\n        return this.balance;\r\n    }\r\n\r\n    // 返回下注金额\r\n    function getTotalCoins() constant returns (uint, uint, uint, uint) {\r\n        return (historyTotalCoins, dragonCoins, tigerCoins, drawCoins);\r\n    }\r\n\r\n    function getMsgValue() constant returns (uint) {\r\n        return msg.value;\r\n    }\r\n\r\n    function registerInterval(address rContractAddr){\r\n        Interval(rContractAddr).getAddress(this);\r\n    }\r\n}\r\n\r\ncontract Interval {\r\n    address [] intervalAddr;\r\n    uint nNumTest = 0;\r\n    uint nNumTestTotal = 0;\r\n    bool flagSign = false;\r\n\r\n    function getAddress(address _getAddr) {\r\n        intervalAddr.push(_getAddr);\r\n    }\r\n\r\n    // 后台定时器触发这个函数就可以了\r\n    function trigger(){\r\n        flagSign = false;\r\n        nNumTestTotal++;\r\n        for (uint i = 0; i < intervalAddr.length; i++) {\r\n            nNumTest++;\r\n            callFeed(intervalAddr[i]);\r\n        }\r\n    }\r\n\r\n    function getAddrLen() constant returns (address []){\r\n        return (intervalAddr);\r\n    }\r\n\r\n    function getTestNum() constant returns (uint, uint){\r\n        return (nNumTest, nNumTestTotal);\r\n    }\r\n\r\n    function getFlag() constant returns (bool){\r\n        return flagSign;\r\n    }\r\n\r\n    function chargeExist(address _addr) returns (bool){\r\n        bool flag = false;\r\n        for (uint i = 0; i < intervalAddr.length; i++) {\r\n            if (intervalAddr[i] == _addr) {\r\n                flag = true;\r\n            }\r\n        }\r\n        return flag;\r\n    }\r\n\r\n    // 传入合约地址\r\n    function callFeed(address contractAddr) {\r\n        flagSign = true;\r\n        PlayGame(contractAddr).getResult();\r\n    }\r\n}",
  "sourcePath": "E:\\truffle\\contracts\\playGame.sol",
  "compiler": {
    "name": "solc",
    "version": "0.4.23+commit.124ca40d.Emscripten.clang"
  },
  "schemaVersion": "2.0.0",
  "updatedAt": "2018-05-30T11:39:08.892Z"
}