{
  "contractName": "playGame",
  "abi": [
    {
      "anonymous": false,
      "inputs": [
        {
          "indexed": false,
          "name": "_bool",
          "type": "bool"
        }
      ],
      "name": "returnBetResult",
      "type": "event"
    },
    {
      "anonymous": false,
      "inputs": [
        {
          "indexed": false,
          "name": "dragonNum",
          "type": "uint256"
        },
        {
          "indexed": false,
          "name": "tigerNum",
          "type": "uint256"
        }
      ],
      "name": "returnBetPoints",
      "type": "event"
    },
    {
      "constant": false,
      "inputs": [],
      "name": "deposit",
      "outputs": [],
      "payable": true,
      "stateMutability": "payable",
      "type": "function"
    },
    {
      "constant": true,
      "inputs": [],
      "name": "getBlockTime",
      "outputs": [
        {
          "name": "",
          "type": "uint256"
        },
        {
          "name": "",
          "type": "uint256"
        },
        {
          "name": "",
          "type": "uint256"
        }
      ],
      "payable": false,
      "stateMutability": "view",
      "type": "function"
    },
    {
      "constant": false,
      "inputs": [
        {
          "name": "addr",
          "type": "address"
        },
        {
          "name": "cho",
          "type": "uint256"
        },
        {
          "name": "ran",
          "type": "uint256"
        },
        {
          "name": "coin",
          "type": "uint256"
        }
      ],
      "name": "sendBetInfo",
      "outputs": [],
      "payable": true,
      "stateMutability": "payable",
      "type": "function"
    },
    {
      "constant": false,
      "inputs": [],
      "name": "xorFun",
      "outputs": [],
      "payable": false,
      "stateMutability": "nonpayable",
      "type": "function"
    },
    {
      "constant": true,
      "inputs": [],
      "name": "getTimestamp",
      "outputs": [
        {
          "name": "",
          "type": "uint256"
        }
      ],
      "payable": false,
      "stateMutability": "view",
      "type": "function"
    },
    {
      "constant": false,
      "inputs": [],
      "name": "processXor",
      "outputs": [],
      "payable": true,
      "stateMutability": "payable",
      "type": "function"
    },
    {
      "constant": false,
      "inputs": [
        {
          "name": "_to",
          "type": "address"
        },
        {
          "name": "_coins",
          "type": "uint256"
        }
      ],
      "name": "transferCoin",
      "outputs": [],
      "payable": false,
      "stateMutability": "nonpayable",
      "type": "function"
    },
    {
      "constant": false,
      "inputs": [],
      "name": "getResult",
      "outputs": [],
      "payable": false,
      "stateMutability": "nonpayable",
      "type": "function"
    },
    {
      "constant": false,
      "inputs": [],
      "name": "reset",
      "outputs": [],
      "payable": false,
      "stateMutability": "nonpayable",
      "type": "function"
    },
    {
      "constant": true,
      "inputs": [],
      "name": "getCurrentBalance",
      "outputs": [
        {
          "name": "",
          "type": "uint256"
        }
      ],
      "payable": false,
      "stateMutability": "view",
      "type": "function"
    },
    {
      "constant": true,
      "inputs": [],
      "name": "getTotalCoins",
      "outputs": [
        {
          "name": "",
          "type": "uint256"
        },
        {
          "name": "",
          "type": "uint256"
        },
        {
          "name": "",
          "type": "uint256"
        },
        {
          "name": "",
          "type": "uint256"
        }
      ],
      "payable": false,
      "stateMutability": "view",
      "type": "function"
    },
    {
      "constant": true,
      "inputs": [],
      "name": "getMsgValue",
      "outputs": [
        {
          "name": "",
          "type": "uint256"
        }
      ],
      "payable": false,
      "stateMutability": "view",
      "type": "function"
    },
    {
      "constant": false,
      "inputs": [
        {
          "name": "contractAddr",
          "type": "address"
        }
      ],
      "name": "registerInterval",
      "outputs": [],
      "payable": false,
      "stateMutability": "nonpayable",
      "type": "function"
    }
  ],
  "bytecode": "0x608060405260008055600060085560006009556000600a556000600b556000600c5533600e60006101000a81548173ffffffffffffffffffffffffffffffffffffffff021916908373ffffffffffffffffffffffffffffffffffffffff16021790555034801561006e57600080fd5b50610d408061007e6000396000f3006080604052600436106100c5576000357c0100000000000000000000000000000000000000000000000000000000900463ffffffff168063070e0dd7146100ca578063188ec3561461011e578063289fc9d21461014957806387ceff09146101895780638dde60fa146101c2578063a17042cc1461020f578063a57497101461023a578063d0e30db014610265578063d826f88f1461026f578063de29278914610286578063e188ce541461029d578063f532cbbd146102b4578063f95d9b15146102f7575b600080fd5b61011c600480360381019080803573ffffffffffffffffffffffffffffffffffffffff169060200190929190803590602001909291908035906020019092919080359060200190929190505050610301565b005b34801561012a57600080fd5b506101336106c3565b6040518082815260200191505060405180910390f35b34801561015557600080fd5b5061015e6106cb565b6040518085815260200184815260200183815260200182815260200194505050505060405180910390f35b34801561019557600080fd5b5061019e6106eb565b60405180848152602001838152602001828152602001935050505060405180910390f35b3480156101ce57600080fd5b5061020d600480360381019080803573ffffffffffffffffffffffffffffffffffffffff16906020019092919080359060200190929190505050610702565b005b34801561021b57600080fd5b5061022461074d565b6040518082815260200191505060405180910390f35b34801561024657600080fd5b5061024f610755565b6040518082815260200191505060405180910390f35b61026d610774565b005b34801561027b57600080fd5b50610284610776565b005b34801561029257600080fd5b5061029b6107ed565b005b3480156102a957600080fd5b506102b2610807565b005b3480156102c057600080fd5b506102f5600480360381019080803573ffffffffffffffffffffffffffffffffffffffff16906020019092919050505061084e565b005b6102ff610904565b005b80600960008282540192505081905550610319610774565b600954600a610326610755565b81151561032f57fe5b041015610377577f2b8d3a4a8f9419a272bdc6541fbd7dbd69cd7ae2d06631437c36db3acf3824ea6000604051808215151515815260200191505060405180910390a16106bd565b600083141561046c5760028490806001815401808255809150509060018203906000526020600020016000909192909190916101000a81548173ffffffffffffffffffffffffffffffffffffffff021916908373ffffffffffffffffffffffffffffffffffffffff1602179055505080600360008673ffffffffffffffffffffffffffffffffffffffff1673ffffffffffffffffffffffffffffffffffffffff1681526020019081526020016000208190555080600a60008282540192505081905550600d60009080600181540180825580915050906001820390600052602060002001600090919290919091505550610654565b60018314156105615760048490806001815401808255809150509060018203906000526020600020016000909192909190916101000a81548173ffffffffffffffffffffffffffffffffffffffff021916908373ffffffffffffffffffffffffffffffffffffffff1602179055505080600560008673ffffffffffffffffffffffffffffffffffffffff1673ffffffffffffffffffffffffffffffffffffffff1681526020019081526020016000208190555080600b60008282540192505081905550600d60019080600181540180825580915050906001820390600052602060002001600090919290919091505550610653565b60028314156106525760068490806001815401808255809150509060018203906000526020600020016000909192909190916101000a81548173ffffffffffffffffffffffffffffffffffffffff021916908373ffffffffffffffffffffffffffffffffffffffff1602179055505080600760008673ffffffffffffffffffffffffffffffffffffffff1673ffffffffffffffffffffffffffffffffffffffff1681526020019081526020016000208190555080600c60008282540192505081905550600d600290806001815401808255809150509060018203906000526020600020016000909192909190915055505b5b5b60018290806001815401808255809150509060018203906000526020600020016000909192909190915055507f2b8d3a4a8f9419a272bdc6541fbd7dbd69cd7ae2d06631437c36db3acf3824ea6001604051808215151515815260200191505060405180910390a15b50505050565b600042905090565b600080600080600954600a54600b54600c54935093509350935090919293565b600080600060085442600054925092509250909192565b8173ffffffffffffffffffffffffffffffffffffffff166108fc829081150290604051600060405180830381858888f19350505050158015610748573d6000803e3d6000fd5b505050565b600034905090565b60003073ffffffffffffffffffffffffffffffffffffffff1631905090565b565b600080819055506107856106c3565b600881905550600060018161079a9190610c97565b5060006002816107aa9190610cc3565b5060006004816107ba9190610cc3565b5060006006816107ca9190610cc3565b5060006009819055506000600a819055506000600b819055506000600c81905550565b6107f5610807565b6107fd610904565b610805610776565b565b60008090505b60018054905081101561084b5760018181548110151561082957fe5b906000526020600020015460005418600081905550808060010191505061080d565b50565b8073ffffffffffffffffffffffffffffffffffffffff1663ae22c57d306040518263ffffffff167c0100000000000000000000000000000000000000000000000000000000028152600401808273ffffffffffffffffffffffffffffffffffffffff1673ffffffffffffffffffffffffffffffffffffffff168152602001915050600060405180830381600087803b1580156108e957600080fd5b505af11580156108fd573d6000803e3d6000fd5b5050505050565b6000806000806000806000603461092060005460026004610c62565b81151561092957fe5b069650603461093d60005460086004610c62565b81151561094657fe5b069550600d8781151561095557fe5b069450600d8681151561096457fe5b06935083851115610a5157600092505b600280549050831015610a4c57610a3f60028481548110151561099357fe5b9060005260206000200160009054906101000a900473ffffffffffffffffffffffffffffffffffffffff166002600360006002888154811015156109d357fe5b9060005260206000200160009054906101000a900473ffffffffffffffffffffffffffffffffffffffff1673ffffffffffffffffffffffffffffffffffffffff1673ffffffffffffffffffffffffffffffffffffffff1681526020019081526020016000205402610702565b8280600101935050610974565b610c1a565b83851015610b3b57600091505b600480549050821015610b3657610b29600483815481101515610a7d57fe5b9060005260206000200160009054906101000a900473ffffffffffffffffffffffffffffffffffffffff16600260056000600487815481101515610abd57fe5b9060005260206000200160009054906101000a900473ffffffffffffffffffffffffffffffffffffffff1673ffffffffffffffffffffffffffffffffffffffff1673ffffffffffffffffffffffffffffffffffffffff1681526020019081526020016000205402610702565b8180600101925050610a5e565b610c19565b600090505b600680549050811015610c1857610c0b600682815481101515610b5f57fe5b9060005260206000200160009054906101000a900473ffffffffffffffffffffffffffffffffffffffff16600860076000600686815481101515610b9f57fe5b9060005260206000200160009054906101000a900473ffffffffffffffffffffffffffffffffffffffff1673ffffffffffffffffffffffffffffffffffffffff1673ffffffffffffffffffffffffffffffffffffffff1681526020019081526020016000205402610702565b8080600101915050610b40565b5b5b7fba6c14a6958885d26ded337adfdc2b0047d5b480d41a7534a63ce511e0a9a9cc8787604051808381526020018281526020019250505060405180910390a150505050505050565b6000808284600d0303600a0a84600d03600a0a86811515610c7f57fe5b06811515610c8957fe5b049050809150509392505050565b815481835581811115610cbe57818360005260206000209182019101610cbd9190610cef565b5b505050565b815481835581811115610cea57818360005260206000209182019101610ce99190610cef565b5b505050565b610d1191905b80821115610d0d576000816000905550600101610cf5565b5090565b905600a165627a7a72305820dd7eef56430b144c1e68b34193be93090f8025acae459181339e689dc27714a90029",
  "source": "pragma solidity ^0.4.0;\r\n\r\ncontract playGame {\r\n    uint xor = 0; // 保存异或的值\r\n    uint [] randomNum; // 保存传入的随机数\r\n    address [] dragon;  // 保存选龙的地址\r\n    mapping(address => uint) dragonMap; // 选龙用户的下注金额\r\n    address [] tiger;   // 保存选虎的地址\r\n    mapping(address => uint) tigerMap; // 选虎用户的下注金额\r\n    address [] draw;    // 保存选合的地址\r\n    mapping(address => uint) drawMap; // 选合用户的下注金额\r\n    uint time = 0; // 保存上一次结算时出块时间戳\r\n    uint totalCoins = 0; // 下注总币\r\n    uint dragonCoins = 0; // 下注龙总币\r\n    uint tigerCoins = 0; // 下注虎总币\r\n    uint drawCoins = 0; // 下注合总币\r\n    uint [] resultHistory; // 保存历史结果\r\n    // 在全局获取的msg.sender为创建者的地址\r\n    // 在函数中获取的msg.sender为当前调用者的地址\r\n    // 函数中返回的this指当前合约地址\r\n    address creator = msg.sender;\r\n\r\n    // 返回是否下注成功\r\n    event returnBetResult(bool _bool);\r\n    // 返回最终结果\r\n    event returnBetPoints(uint dragonNum, uint tigerNum);\r\n\r\n    function deposit() payable {\r\n\r\n    }\r\n\r\n    function getBlockTime() constant returns (uint, uint,uint){\r\n        return (time, block.timestamp, xor);\r\n    }\r\n\r\n    // 下注传入信息\r\n    // 如果下注金额大于当前奖池金额，返回false，下注失败\r\n    function sendBetInfo(address addr, uint cho, uint ran, uint coin) payable {\r\n        totalCoins += coin;\r\n        deposit();\r\n        if (getCurrentBalance() / 10 < totalCoins) {\r\n            returnBetResult(false);\r\n        } else {\r\n            if (cho == 0) {\r\n                dragon.push(addr);\r\n                dragonMap[addr] = coin;\r\n                dragonCoins += coin;\r\n                resultHistory.push(0);\r\n            } else if (cho == 1) {\r\n                tiger.push(addr);\r\n                tigerMap[addr] = coin;\r\n                tigerCoins += coin;\r\n                resultHistory.push(1);\r\n            } else if (cho == 2) {\r\n                draw.push(addr);\r\n                drawMap[addr] = coin;\r\n                drawCoins += coin;\r\n                resultHistory.push(2);\r\n            }\r\n            randomNum.push(ran);\r\n            returnBetResult(true);\r\n        }\r\n    }\r\n\r\n    // 异或函数,得到结果随机数\r\n    function xorFun() public {\r\n        for (uint i = 0; i < randomNum.length; i++) {\r\n            xor = xor ^ randomNum[i];\r\n        }\r\n    }\r\n\r\n    // 获取当前出块时间戳 (单位是秒)\r\n    function getTimestamp() constant returns (uint) {\r\n        return block.timestamp;\r\n    }\r\n\r\n    // 处理这个随机数,得到2个值\r\n    function getXorPerson(uint number, uint start, uint long) private returns (uint) {\r\n        uint num = (number % (10 ** (13 - start))) / (10 ** (13 - start - long));\r\n        return num;\r\n    }\r\n\r\n    // num1 => 龙\r\n    // num2 => 虎\r\n    function processXor() payable {\r\n        uint num1 = getXorPerson(xor, 2, 4) % 52;\r\n        uint num2 = getXorPerson(xor, 8, 4) % 52;\r\n        uint dNum = num1 % 13;\r\n        uint tNum = num2 % 13;\r\n        if (dNum > tNum) {\r\n            for (uint i = 0; i < dragon.length; i++) {\r\n                transferCoin(dragon[i], dragonMap[dragon[i]] * 2);\r\n            }\r\n        } else if (dNum < tNum) {\r\n            for (uint j = 0; j < tiger.length; j++) {\r\n                transferCoin(tiger[j], tigerMap[tiger[j]] * 2);\r\n            }\r\n        } else {\r\n            for (uint k = 0; k < draw.length; k++) {\r\n                transferCoin(draw[k], drawMap[draw[k]] * 8);\r\n            }\r\n        }\r\n        returnBetPoints(num1, num2);\r\n    }\r\n\r\n    // 转账函数\r\n    function transferCoin(address _to, uint _coins) {\r\n        _to.transfer(_coins);\r\n    }\r\n\r\n    // 结算函数\r\n    function getResult() {\r\n        //异或后得到了12位的随机数\r\n        xorFun();\r\n        processXor();\r\n        reset();\r\n    }\r\n    // 重置函数\r\n    function reset (){\r\n        xor = 0;\r\n        time = getTimestamp();\r\n        randomNum.length = 0;\r\n        dragon.length = 0;\r\n        tiger.length = 0;\r\n        draw.length = 0;\r\n        totalCoins = 0;\r\n        dragonCoins = 0;\r\n        tigerCoins = 0;\r\n        drawCoins = 0;\r\n    }\r\n    // 返回当前合约账户的余额\r\n    function getCurrentBalance() constant returns (uint256) {\r\n        return this.balance;\r\n    }\r\n\r\n    // 返回下注金额\r\n    function getTotalCoins() constant returns (uint, uint, uint, uint) {\r\n        return (totalCoins, dragonCoins, tigerCoins, drawCoins);\r\n    }\r\n\r\n    function getMsgValue() constant returns (uint) {\r\n        return msg.value;\r\n    }\r\n\r\n    function registerInterval(address contractAddr){\r\n        interval(contractAddr).getAddress(this);\r\n    }\r\n}\r\n\r\ncontract interval {\r\n    address [] addr;\r\n\r\n    function getAddress(address _addr) {\r\n        addr.push(_addr);\r\n    }\r\n    //\r\n    function trigger(){\r\n        for (uint i = 0; i < addr.length; i++) {\r\n            callFeed(addr[i]);\r\n        }\r\n    }\r\n\r\n    function getAddrLen() constant returns (uint){\r\n        return addr.length;\r\n    }\r\n    // 传入合约地址\r\n    function callFeed(address addr) {\r\n        playGame(addr).getResult();\r\n    }\r\n}",
  "sourcePath": "E:\\truffle\\contracts\\playGame.sol",
  "compiler": {
    "name": "solc",
    "version": "0.4.23+commit.124ca40d.Emscripten.clang"
  },
  "schemaVersion": "2.0.0",
  "updatedAt": "2018-05-18T12:30:45.634Z"
}