{
  "contractName": "PlayGame",
  "abi": [
    {
      "inputs": [
        {
          "name": "price1",
          "type": "uint256"
        },
        {
          "name": "price2",
          "type": "uint256"
        },
        {
          "name": "price3",
          "type": "uint256"
        },
        {
          "name": "_type",
          "type": "uint256"
        }
      ],
      "payable": false,
      "stateMutability": "nonpayable",
      "type": "constructor"
    },
    {
      "anonymous": false,
      "inputs": [
        {
          "indexed": false,
          "name": "_bool",
          "type": "bool"
        }
      ],
      "name": "returnBetResult",
      "type": "event"
    },
    {
      "anonymous": false,
      "inputs": [
        {
          "indexed": false,
          "name": "dragonNum",
          "type": "uint256"
        },
        {
          "indexed": false,
          "name": "tigerNum",
          "type": "uint256"
        }
      ],
      "name": "returnBetPoints",
      "type": "event"
    },
    {
      "constant": false,
      "inputs": [],
      "name": "deposit",
      "outputs": [],
      "payable": true,
      "stateMutability": "payable",
      "type": "function"
    },
    {
      "constant": true,
      "inputs": [],
      "name": "getPrice",
      "outputs": [
        {
          "name": "",
          "type": "uint256[]"
        }
      ],
      "payable": false,
      "stateMutability": "view",
      "type": "function"
    },
    {
      "constant": true,
      "inputs": [],
      "name": "getBlockTime",
      "outputs": [
        {
          "name": "",
          "type": "uint256"
        },
        {
          "name": "",
          "type": "uint256"
        },
        {
          "name": "",
          "type": "uint256"
        }
      ],
      "payable": false,
      "stateMutability": "view",
      "type": "function"
    },
    {
      "constant": false,
      "inputs": [
        {
          "name": "addr",
          "type": "address"
        },
        {
          "name": "cho",
          "type": "uint256"
        },
        {
          "name": "ran",
          "type": "uint256"
        },
        {
          "name": "coin",
          "type": "uint256"
        }
      ],
      "name": "sendBetInfo",
      "outputs": [],
      "payable": true,
      "stateMutability": "payable",
      "type": "function"
    },
    {
      "constant": false,
      "inputs": [],
      "name": "xorFun",
      "outputs": [],
      "payable": false,
      "stateMutability": "nonpayable",
      "type": "function"
    },
    {
      "constant": true,
      "inputs": [],
      "name": "getTimestamp",
      "outputs": [
        {
          "name": "",
          "type": "uint256"
        }
      ],
      "payable": false,
      "stateMutability": "view",
      "type": "function"
    },
    {
      "constant": false,
      "inputs": [],
      "name": "processXor",
      "outputs": [],
      "payable": true,
      "stateMutability": "payable",
      "type": "function"
    },
    {
      "constant": false,
      "inputs": [
        {
          "name": "_to",
          "type": "address"
        },
        {
          "name": "_coins",
          "type": "uint256"
        }
      ],
      "name": "transferCoin",
      "outputs": [],
      "payable": false,
      "stateMutability": "nonpayable",
      "type": "function"
    },
    {
      "constant": false,
      "inputs": [
        {
          "name": "coin",
          "type": "uint256"
        }
      ],
      "name": "drawings",
      "outputs": [],
      "payable": true,
      "stateMutability": "payable",
      "type": "function"
    },
    {
      "constant": false,
      "inputs": [],
      "name": "getResult",
      "outputs": [],
      "payable": false,
      "stateMutability": "nonpayable",
      "type": "function"
    },
    {
      "constant": false,
      "inputs": [],
      "name": "reset",
      "outputs": [],
      "payable": false,
      "stateMutability": "nonpayable",
      "type": "function"
    },
    {
      "constant": true,
      "inputs": [],
      "name": "getCurrentBalance",
      "outputs": [
        {
          "name": "",
          "type": "uint256"
        }
      ],
      "payable": false,
      "stateMutability": "view",
      "type": "function"
    },
    {
      "constant": true,
      "inputs": [],
      "name": "getTotalCoins",
      "outputs": [
        {
          "name": "",
          "type": "uint256"
        },
        {
          "name": "",
          "type": "uint256"
        },
        {
          "name": "",
          "type": "uint256"
        },
        {
          "name": "",
          "type": "uint256"
        }
      ],
      "payable": false,
      "stateMutability": "view",
      "type": "function"
    },
    {
      "constant": true,
      "inputs": [],
      "name": "getMsgValue",
      "outputs": [
        {
          "name": "",
          "type": "uint256"
        }
      ],
      "payable": false,
      "stateMutability": "view",
      "type": "function"
    },
    {
      "constant": false,
      "inputs": [
        {
          "name": "contractAddr",
          "type": "address"
        }
      ],
      "name": "registerInterval",
      "outputs": [],
      "payable": false,
      "stateMutability": "nonpayable",
      "type": "function"
    }
  ],
  "bytecode": "0x608060405260008055600060085560006009556000600a556000600b556000600c556000600d5533600f60006101000a81548173ffffffffffffffffffffffffffffffffffffffff021916908373ffffffffffffffffffffffffffffffffffffffff16021790555034801561007357600080fd5b5060405160808062001408833981018060405281019080805190602001909291908051906020019092919080519060200190929190805190602001909291905050506080604051908101604052808581526020018481526020018381526020018281525060109060046100e79291906100f1565b5050505050610163565b82805482825590600052602060002090810192821561012d579160200282015b8281111561012c578251825591602001919060010190610111565b5b50905061013a919061013e565b5090565b61016091905b8082111561015c576000816000905550600101610144565b5090565b90565b61129580620001736000396000f3006080604052600436106100db576000357c0100000000000000000000000000000000000000000000000000000000900463ffffffff1680630366fc49146100e0578063070e0dd714610100578063188ec35614610154578063289fc9d21461017f57806387ceff09146101bf5780638dde60fa146101f857806398d5fdca14610245578063a17042cc146102b1578063a5749710146102dc578063d0e30db014610307578063d826f88f14610311578063de29278914610328578063e188ce541461033f578063f532cbbd14610356578063f95d9b1514610399575b600080fd5b6100fe600480360381019080803590602001909291905050506103a3565b005b610152600480360381019080803573ffffffffffffffffffffffffffffffffffffffff16906020019092919080359060200190929190803590602001909291908035906020019092919050505061044f565b005b34801561016057600080fd5b50610169610bc0565b6040518082815260200191505060405180910390f35b34801561018b57600080fd5b50610194610bc8565b6040518085815260200184815260200183815260200182815260200194505050505060405180910390f35b3480156101cb57600080fd5b506101d4610be8565b60405180848152602001838152602001828152602001935050505060405180910390f35b34801561020457600080fd5b50610243600480360381019080803573ffffffffffffffffffffffffffffffffffffffff16906020019092919080359060200190929190505050610bff565b005b34801561025157600080fd5b5061025a610c4a565b6040518080602001828103825283818151815260200191508051906020019060200280838360005b8381101561029d578082015181840152602081019050610282565b505050509050019250505060405180910390f35b3480156102bd57600080fd5b506102c6610ca2565b6040518082815260200191505060405180910390f35b3480156102e857600080fd5b506102f1610caa565b6040518082815260200191505060405180910390f35b61030f610cc9565b005b34801561031d57600080fd5b50610326610ccb565b005b34801561033457600080fd5b5061033d610d42565b005b34801561034b57600080fd5b50610354610d5c565b005b34801561036257600080fd5b50610397600480360381019080803573ffffffffffffffffffffffffffffffffffffffff169060200190929190505050610da3565b005b6103a1610e59565b005b6000600f60009054906101000a900473ffffffffffffffffffffffffffffffffffffffff1673ffffffffffffffffffffffffffffffffffffffff163373ffffffffffffffffffffffffffffffffffffffff16141561044b57610403610caa565b9050600954600a83830381151561041657fe5b04111561044a57610449600f60009054906101000a900473ffffffffffffffffffffffffffffffffffffffff1683610bff565b5b5b5050565b6000806000806000808660096000828254019250508190555086600a60008282540192505081905550610480610cc9565b600954600a61048d610caa565b81151561049657fe5b0410156104de577f2b8d3a4a8f9419a272bdc6541fbd7dbd69cd7ae2d06631437c36db3acf3824ea6000604051808215151515815260200191505060405180910390a1610bb4565b60008914156107035760009550600094505b600280549050851015610580578973ffffffffffffffffffffffffffffffffffffffff1660028681548110151561052357fe5b9060005260206000200160009054906101000a900473ffffffffffffffffffffffffffffffffffffffff1673ffffffffffffffffffffffffffffffffffffffff1614156105735760019550610580565b84806001019550506104f0565b8515156105ee5760028a90806001815401808255809150509060018203906000526020600020016000909192909190916101000a81548173ffffffffffffffffffffffffffffffffffffffff021916908373ffffffffffffffffffffffffffffffffffffffff160217905550505b6000600360008c73ffffffffffffffffffffffffffffffffffffffff1673ffffffffffffffffffffffffffffffffffffffff168152602001908152602001600020541461063b578661067e565b86600360008c73ffffffffffffffffffffffffffffffffffffffff1673ffffffffffffffffffffffffffffffffffffffff16815260200190815260200160002054015b600360008c73ffffffffffffffffffffffffffffffffffffffff1673ffffffffffffffffffffffffffffffffffffffff1681526020019081526020016000208190555086600b60008282540192505081905550600e60009080600181540180825580915050906001820390600052602060002001600090919290919091505550610b4b565b60018914156109285760009350600092505b6004805490508310156107a5578973ffffffffffffffffffffffffffffffffffffffff1660048481548110151561074857fe5b9060005260206000200160009054906101000a900473ffffffffffffffffffffffffffffffffffffffff1673ffffffffffffffffffffffffffffffffffffffff16141561079857600193506107a5565b8280600101935050610715565b8315156108135760048a90806001815401808255809150509060018203906000526020600020016000909192909190916101000a81548173ffffffffffffffffffffffffffffffffffffffff021916908373ffffffffffffffffffffffffffffffffffffffff160217905550505b6000600560008c73ffffffffffffffffffffffffffffffffffffffff1673ffffffffffffffffffffffffffffffffffffffff168152602001908152602001600020541461086057866108a3565b86600560008c73ffffffffffffffffffffffffffffffffffffffff1673ffffffffffffffffffffffffffffffffffffffff16815260200190815260200160002054015b600560008c73ffffffffffffffffffffffffffffffffffffffff1673ffffffffffffffffffffffffffffffffffffffff1681526020019081526020016000208190555086600c60008282540192505081905550600e60019080600181540180825580915050906001820390600052602060002001600090919290919091505550610b4a565b6002891415610b495760009150600090505b6006805490508110156109ca578973ffffffffffffffffffffffffffffffffffffffff1660068681548110151561096d57fe5b9060005260206000200160009054906101000a900473ffffffffffffffffffffffffffffffffffffffff1673ffffffffffffffffffffffffffffffffffffffff1614156109bd57600191506109ca565b808060010191505061093a565b811515610a385760068a90806001815401808255809150509060018203906000526020600020016000909192909190916101000a81548173ffffffffffffffffffffffffffffffffffffffff021916908373ffffffffffffffffffffffffffffffffffffffff160217905550505b6000600760008c73ffffffffffffffffffffffffffffffffffffffff1673ffffffffffffffffffffffffffffffffffffffff1681526020019081526020016000205414610a855786610ac8565b86600760008c73ffffffffffffffffffffffffffffffffffffffff1673ffffffffffffffffffffffffffffffffffffffff16815260200190815260200160002054015b600760008c73ffffffffffffffffffffffffffffffffffffffff1673ffffffffffffffffffffffffffffffffffffffff1681526020019081526020016000208190555086600d60008282540192505081905550600e600290806001815401808255809150509060018203906000526020600020016000909192909190915055505b5b5b60018890806001815401808255809150509060018203906000526020600020016000909192909190915055507f2b8d3a4a8f9419a272bdc6541fbd7dbd69cd7ae2d06631437c36db3acf3824ea6001604051808215151515815260200191505060405180910390a15b50505050505050505050565b600042905090565b600080600080600a54600b54600c54600d54935093509350935090919293565b600080600060085442600054925092509250909192565b8173ffffffffffffffffffffffffffffffffffffffff166108fc829081150290604051600060405180830381858888f19350505050158015610c45573d6000803e3d6000fd5b505050565b60606010805480602002602001604051908101604052809291908181526020018280548015610c9857602002820191906000526020600020905b815481526020019060010190808311610c84575b5050505050905090565b600034905090565b60003073ffffffffffffffffffffffffffffffffffffffff1631905090565b565b60008081905550610cda610bc0565b6008819055506000600181610cef91906111ec565b506000600281610cff9190611218565b506000600481610d0f9190611218565b506000600681610d1f9190611218565b5060006009819055506000600b819055506000600c819055506000600d81905550565b610d4a610d5c565b610d52610e59565b610d5a610ccb565b565b60008090505b600180549050811015610da057600181815481101515610d7e57fe5b9060005260206000200154600054186000819055508080600101915050610d62565b50565b8073ffffffffffffffffffffffffffffffffffffffff1663ae22c57d306040518263ffffffff167c0100000000000000000000000000000000000000000000000000000000028152600401808273ffffffffffffffffffffffffffffffffffffffff1673ffffffffffffffffffffffffffffffffffffffff168152602001915050600060405180830381600087803b158015610e3e57600080fd5b505af1158015610e52573d6000803e3d6000fd5b5050505050565b60008060008060008060006034610e75600054600260046111b7565b811515610e7e57fe5b0696506034610e92600054600860046111b7565b811515610e9b57fe5b069550600d87811515610eaa57fe5b069450600d86811515610eb957fe5b06935083851115610fa657600092505b600280549050831015610fa157610f94600284815481101515610ee857fe5b9060005260206000200160009054906101000a900473ffffffffffffffffffffffffffffffffffffffff16600260036000600288815481101515610f2857fe5b9060005260206000200160009054906101000a900473ffffffffffffffffffffffffffffffffffffffff1673ffffffffffffffffffffffffffffffffffffffff1673ffffffffffffffffffffffffffffffffffffffff1681526020019081526020016000205402610bff565b8280600101935050610ec9565b61116f565b8385101561109057600091505b60048054905082101561108b5761107e600483815481101515610fd257fe5b9060005260206000200160009054906101000a900473ffffffffffffffffffffffffffffffffffffffff1660026005600060048781548110151561101257fe5b9060005260206000200160009054906101000a900473ffffffffffffffffffffffffffffffffffffffff1673ffffffffffffffffffffffffffffffffffffffff1673ffffffffffffffffffffffffffffffffffffffff1681526020019081526020016000205402610bff565b8180600101925050610fb3565b61116e565b600090505b60068054905081101561116d576111606006828154811015156110b457fe5b9060005260206000200160009054906101000a900473ffffffffffffffffffffffffffffffffffffffff166008600760006006868154811015156110f457fe5b9060005260206000200160009054906101000a900473ffffffffffffffffffffffffffffffffffffffff1673ffffffffffffffffffffffffffffffffffffffff1673ffffffffffffffffffffffffffffffffffffffff1681526020019081526020016000205402610bff565b8080600101915050611095565b5b5b7fba6c14a6958885d26ded337adfdc2b0047d5b480d41a7534a63ce511e0a9a9cc8787604051808381526020018281526020019250505060405180910390a150505050505050565b6000808284600d0303600a0a84600d03600a0a868115156111d457fe5b068115156111de57fe5b049050809150509392505050565b815481835581811115611213578183600052602060002091820191016112129190611244565b5b505050565b81548183558181111561123f5781836000526020600020918201910161123e9190611244565b5b505050565b61126691905b8082111561126257600081600090555060010161124a565b5090565b905600a165627a7a723058204402e4122b74fa039f33c0d744de800428e2143e051d0cd3a1a3e8b29db191c70029",
  "source": "pragma solidity ^0.4.0;\r\n\r\ncontract PlayGame {\r\n    uint xor = 0; // 保存异或的值\r\n    uint [] randomNum; // 保存传入的随机数\r\n    address [] dragon;  // 保存选龙的地址\r\n    mapping(address => uint) dragonMap; // 选龙用户的下注金额\r\n    address [] tiger;   // 保存选虎的地址\r\n    mapping(address => uint) tigerMap; // 选虎用户的下注金额\r\n    address [] draw;    // 保存选合的地址\r\n    mapping(address => uint) drawMap; // 选合用户的下注金额\r\n    uint time = 0; // 保存上一次结算时出块时间戳\r\n    uint totalCoins = 0; // 当前局下注总币\r\n    uint historyTotalCoins = 0; // 历史下注总币\r\n    uint dragonCoins = 0; // 下注龙总币\r\n    uint tigerCoins = 0; // 下注虎总币\r\n    uint drawCoins = 0; // 下注合总币\r\n    uint [] resultHistory; // 保存历史结果\r\n    // 在全局获取的msg.sender为创建者的地址\r\n    // 在函数中获取的msg.sender为当前调用者的地址\r\n    // 函数中返回的this指当前合约地址\r\n    address creator = msg.sender;\r\n    uint [] price;\r\n    // 返回是否下注成功\r\n    event returnBetResult(bool _bool);\r\n    // 返回最终结果\r\n    event returnBetPoints(uint dragonNum, uint tigerNum);\r\n\r\n    function deposit() payable {\r\n\r\n    }\r\n\r\n    function PlayGame(uint price1, uint price2, uint price3, uint _type){\r\n        price = [price1, price2, price3, _type];\r\n    }\r\n    // 获取自己设置的下注金额列表\r\n    function getPrice() constant returns (uint []){\r\n        return price;\r\n    }\r\n\r\n    function getBlockTime() constant returns (uint, uint, uint){\r\n        return (time, block.timestamp, xor);\r\n    }\r\n\r\n    // 下注传入信息\r\n    // 如果下注金额大于当前奖池金额，返回false，下注失败\r\n    function sendBetInfo(address addr, uint cho, uint ran, uint coin) payable {\r\n        totalCoins += coin;\r\n        historyTotalCoins += coin;\r\n        deposit();\r\n        if (getCurrentBalance() / 10 < totalCoins) {\r\n            returnBetResult(false);\r\n        } else {\r\n            if (cho == 0) {\r\n                bool flag0 = false;\r\n                for (uint i = 0; i < dragon.length; i++) {\r\n                    if (dragon[i] == addr) {\r\n                        flag0 = true;\r\n                        break;\r\n                    }\r\n                }\r\n                if (!flag0) {\r\n                    dragon.push(addr);\r\n                }\r\n                dragonMap[addr] = dragonMap[addr] == 0 ? (dragonMap[addr] + coin) : coin;\r\n                dragonCoins += coin;\r\n                resultHistory.push(0);\r\n            } else if (cho == 1) {\r\n                bool flag1 = false;\r\n                for (uint j = 0; j < tiger.length; j++) {\r\n                    if (tiger[j] == addr) {\r\n                        flag1 = true;\r\n                        break;\r\n                    }\r\n                }\r\n                if (!flag1) {\r\n                    tiger.push(addr);\r\n                }\r\n                tigerMap[addr] = tigerMap[addr] == 0 ? (tigerMap[addr] + coin) : coin;\r\n                tigerCoins += coin;\r\n                resultHistory.push(1);\r\n            } else if (cho == 2) {\r\n                bool flag2 = false;\r\n                for (uint k = 0; k < draw.length; k++) {\r\n                    if (draw[i] == addr) {\r\n                        flag2 = true;\r\n                        break;\r\n                    }\r\n                }\r\n                if (!flag2) {\r\n                    draw.push(addr);\r\n                }\r\n                drawMap[addr] = drawMap[addr] == 0 ? (drawMap[addr] + coin) : coin;\r\n                drawCoins += coin;\r\n                resultHistory.push(2);\r\n            }\r\n            randomNum.push(ran);\r\n            returnBetResult(true);\r\n        }\r\n    }\r\n\r\n    // 异或函数,得到结果随机数\r\n    function xorFun() public {\r\n        for (uint i = 0; i < randomNum.length; i++) {\r\n            xor = xor ^ randomNum[i];\r\n        }\r\n    }\r\n\r\n    // 获取当前出块时间戳 (单位是秒)\r\n    function getTimestamp() constant returns (uint) {\r\n        return block.timestamp;\r\n    }\r\n\r\n    // 处理这个随机数,得到2个值\r\n    function getXorPerson(uint number, uint start, uint long) private returns (uint) {\r\n        uint num = (number % (10 ** (13 - start))) / (10 ** (13 - start - long));\r\n        return num;\r\n    }\r\n\r\n    // num1 => 龙\r\n    // num2 => 虎\r\n    function processXor() payable {\r\n        uint num1 = getXorPerson(xor, 2, 4) % 52;\r\n        uint num2 = getXorPerson(xor, 8, 4) % 52;\r\n        uint dNum = num1 % 13;\r\n        uint tNum = num2 % 13;\r\n        if (dNum > tNum) {\r\n            for (uint i = 0; i < dragon.length; i++) {\r\n                transferCoin(dragon[i], dragonMap[dragon[i]] * 2);\r\n            }\r\n        } else if (dNum < tNum) {\r\n            for (uint j = 0; j < tiger.length; j++) {\r\n                transferCoin(tiger[j], tigerMap[tiger[j]] * 2);\r\n            }\r\n        } else {\r\n            for (uint k = 0; k < draw.length; k++) {\r\n                transferCoin(draw[k], drawMap[draw[k]] * 8);\r\n            }\r\n        }\r\n        returnBetPoints(num1, num2);\r\n    }\r\n\r\n    // 转账函数\r\n    function transferCoin(address _to, uint _coins) {\r\n        _to.transfer(_coins);\r\n    }\r\n    // 提现函数,只有创建者账户可以提现\r\n    function drawings(uint coin) payable {\r\n        if (msg.sender == creator) {\r\n            uint _balance = getCurrentBalance();\r\n            if ((_balance - coin) / 10 > totalCoins) {\r\n                transferCoin(creator, coin);\r\n            }\r\n        }\r\n    }\r\n    // 结算函数\r\n    function getResult() {\r\n        //异或后得到了12位的随机数\r\n        xorFun();\r\n        processXor();\r\n        reset();\r\n    }\r\n    // 重置函数\r\n    function reset(){\r\n        xor = 0;\r\n        time = getTimestamp();\r\n        randomNum.length = 0;\r\n        dragon.length = 0;\r\n        tiger.length = 0;\r\n        draw.length = 0;\r\n        totalCoins = 0;\r\n        dragonCoins = 0;\r\n        tigerCoins = 0;\r\n        drawCoins = 0;\r\n    }\r\n    // 返回当前合约账户的余额\r\n    function getCurrentBalance() constant returns (uint256) {\r\n        return this.balance;\r\n    }\r\n\r\n    // 返回下注金额\r\n    function getTotalCoins() constant returns (uint, uint, uint, uint) {\r\n        return (historyTotalCoins, dragonCoins, tigerCoins, drawCoins);\r\n    }\r\n\r\n    function getMsgValue() constant returns (uint) {\r\n        return msg.value;\r\n    }\r\n\r\n    function registerInterval(address contractAddr){\r\n        Interval(contractAddr).getAddress(this);\r\n    }\r\n}\r\n\r\ncontract Interval {\r\n    address [] addr;\r\n\r\n    function getAddress(address _addr) {\r\n        addr.push(_addr);\r\n    }\r\n\r\n    // 后台定时器触发这个函数就可以了\r\n    function trigger(){\r\n        for (uint i = 0; i < addr.length; i++) {\r\n            callFeed(addr[i]);\r\n        }\r\n    }\r\n\r\n    function getAddrLen() constant returns (uint){\r\n        return addr.length;\r\n    }\r\n\r\n    function chargeExist(address _addr) returns (bool){\r\n        bool flag = false;\r\n        for (uint i = 0; i < addr.length; i++) {\r\n            if (addr[i] == _addr) {\r\n                flag = true;\r\n            }\r\n        }\r\n        return flag;\r\n    }\r\n\r\n    // 传入合约地址\r\n    function callFeed(address addr) {\r\n        PlayGame(addr).getResult();\r\n    }\r\n}",
  "sourcePath": "E:\\truffle\\contracts\\playGame.sol",
  "compiler": {
    "name": "solc",
    "version": "0.4.23+commit.124ca40d.Emscripten.clang"
  },
  "schemaVersion": "2.0.0",
  "updatedAt": "2018-05-25T08:38:44.608Z"
}