{
  "contractName": "PlayGame",
  "abi": [
    {
      "inputs": [
        {
          "name": "price1",
          "type": "uint256"
        },
        {
          "name": "price2",
          "type": "uint256"
        },
        {
          "name": "price3",
          "type": "uint256"
        },
        {
          "name": "_type",
          "type": "uint256"
        }
      ],
      "payable": false,
      "stateMutability": "nonpayable",
      "type": "constructor"
    },
    {
      "anonymous": false,
      "inputs": [
        {
          "indexed": false,
          "name": "_bool",
          "type": "bool"
        }
      ],
      "name": "returnBetResult",
      "type": "event"
    },
    {
      "anonymous": false,
      "inputs": [
        {
          "indexed": false,
          "name": "dragonNum",
          "type": "uint256"
        },
        {
          "indexed": false,
          "name": "tigerNum",
          "type": "uint256"
        }
      ],
      "name": "returnBetPoints",
      "type": "event"
    },
    {
      "constant": false,
      "inputs": [],
      "name": "deposit",
      "outputs": [],
      "payable": true,
      "stateMutability": "payable",
      "type": "function"
    },
    {
      "constant": true,
      "inputs": [],
      "name": "getPrice",
      "outputs": [
        {
          "name": "",
          "type": "uint256[]"
        }
      ],
      "payable": false,
      "stateMutability": "view",
      "type": "function"
    },
    {
      "constant": true,
      "inputs": [],
      "name": "getBlockTime",
      "outputs": [
        {
          "name": "",
          "type": "uint256"
        },
        {
          "name": "",
          "type": "uint256"
        },
        {
          "name": "",
          "type": "uint256"
        }
      ],
      "payable": false,
      "stateMutability": "view",
      "type": "function"
    },
    {
      "constant": false,
      "inputs": [
        {
          "name": "addr",
          "type": "address"
        },
        {
          "name": "cho",
          "type": "uint256"
        },
        {
          "name": "ran",
          "type": "uint256"
        },
        {
          "name": "coin",
          "type": "uint256"
        }
      ],
      "name": "sendBetInfo",
      "outputs": [],
      "payable": true,
      "stateMutability": "payable",
      "type": "function"
    },
    {
      "constant": false,
      "inputs": [],
      "name": "xorFun",
      "outputs": [],
      "payable": false,
      "stateMutability": "nonpayable",
      "type": "function"
    },
    {
      "constant": true,
      "inputs": [],
      "name": "getTimestamp",
      "outputs": [
        {
          "name": "",
          "type": "uint256"
        }
      ],
      "payable": false,
      "stateMutability": "view",
      "type": "function"
    },
    {
      "constant": false,
      "inputs": [],
      "name": "processXor",
      "outputs": [],
      "payable": true,
      "stateMutability": "payable",
      "type": "function"
    },
    {
      "constant": false,
      "inputs": [
        {
          "name": "_to",
          "type": "address"
        },
        {
          "name": "_coins",
          "type": "uint256"
        }
      ],
      "name": "transferCoin",
      "outputs": [],
      "payable": false,
      "stateMutability": "nonpayable",
      "type": "function"
    },
    {
      "constant": false,
      "inputs": [],
      "name": "getResult",
      "outputs": [],
      "payable": false,
      "stateMutability": "nonpayable",
      "type": "function"
    },
    {
      "constant": false,
      "inputs": [],
      "name": "reset",
      "outputs": [],
      "payable": false,
      "stateMutability": "nonpayable",
      "type": "function"
    },
    {
      "constant": true,
      "inputs": [],
      "name": "getCurrentBalance",
      "outputs": [
        {
          "name": "",
          "type": "uint256"
        }
      ],
      "payable": false,
      "stateMutability": "view",
      "type": "function"
    },
    {
      "constant": true,
      "inputs": [],
      "name": "getTotalCoins",
      "outputs": [
        {
          "name": "",
          "type": "uint256"
        },
        {
          "name": "",
          "type": "uint256"
        },
        {
          "name": "",
          "type": "uint256"
        },
        {
          "name": "",
          "type": "uint256"
        }
      ],
      "payable": false,
      "stateMutability": "view",
      "type": "function"
    },
    {
      "constant": true,
      "inputs": [],
      "name": "getMsgValue",
      "outputs": [
        {
          "name": "",
          "type": "uint256"
        }
      ],
      "payable": false,
      "stateMutability": "view",
      "type": "function"
    },
    {
      "constant": false,
      "inputs": [
        {
          "name": "contractAddr",
          "type": "address"
        }
      ],
      "name": "registerInterval",
      "outputs": [],
      "payable": false,
      "stateMutability": "nonpayable",
      "type": "function"
    }
  ],
  "bytecode": "0x608060405260008055600060085560006009556000600a556000600b556000600c5533600e60006101000a81548173ffffffffffffffffffffffffffffffffffffffff021916908373ffffffffffffffffffffffffffffffffffffffff16021790555034801561006e57600080fd5b50604051608080610f7b8339810180604052810190808051906020019092919080519060200190929190805190602001909291908051906020019092919050505060806040519081016040528085815260200184815260200183815260200182815250600f9060046100e19291906100eb565b505050505061015d565b828054828255906000526020600020908101928215610127579160200282015b8281111561012657825182559160200191906001019061010b565b5b5090506101349190610138565b5090565b61015a91905b8082111561015657600081600090555060010161013e565b5090565b90565b610e0f8061016c6000396000f3006080604052600436106100d0576000357c0100000000000000000000000000000000000000000000000000000000900463ffffffff168063070e0dd7146100d5578063188ec35614610129578063289fc9d21461015457806387ceff09146101945780638dde60fa146101cd57806398d5fdca1461021a578063a17042cc14610286578063a5749710146102b1578063d0e30db0146102dc578063d826f88f146102e6578063de292789146102fd578063e188ce5414610314578063f532cbbd1461032b578063f95d9b151461036e575b600080fd5b610127600480360381019080803573ffffffffffffffffffffffffffffffffffffffff169060200190929190803590602001909291908035906020019092919080359060200190929190505050610378565b005b34801561013557600080fd5b5061013e61073a565b6040518082815260200191505060405180910390f35b34801561016057600080fd5b50610169610742565b6040518085815260200184815260200183815260200182815260200194505050505060405180910390f35b3480156101a057600080fd5b506101a9610762565b60405180848152602001838152602001828152602001935050505060405180910390f35b3480156101d957600080fd5b50610218600480360381019080803573ffffffffffffffffffffffffffffffffffffffff16906020019092919080359060200190929190505050610779565b005b34801561022657600080fd5b5061022f6107c4565b6040518080602001828103825283818151815260200191508051906020019060200280838360005b83811015610272578082015181840152602081019050610257565b505050509050019250505060405180910390f35b34801561029257600080fd5b5061029b61081c565b6040518082815260200191505060405180910390f35b3480156102bd57600080fd5b506102c6610824565b6040518082815260200191505060405180910390f35b6102e4610843565b005b3480156102f257600080fd5b506102fb610845565b005b34801561030957600080fd5b506103126108bc565b005b34801561032057600080fd5b506103296108d6565b005b34801561033757600080fd5b5061036c600480360381019080803573ffffffffffffffffffffffffffffffffffffffff16906020019092919050505061091d565b005b6103766109d3565b005b80600960008282540192505081905550610390610843565b600954600a61039d610824565b8115156103a657fe5b0410156103ee577f2b8d3a4a8f9419a272bdc6541fbd7dbd69cd7ae2d06631437c36db3acf3824ea6000604051808215151515815260200191505060405180910390a1610734565b60008314156104e35760028490806001815401808255809150509060018203906000526020600020016000909192909190916101000a81548173ffffffffffffffffffffffffffffffffffffffff021916908373ffffffffffffffffffffffffffffffffffffffff1602179055505080600360008673ffffffffffffffffffffffffffffffffffffffff1673ffffffffffffffffffffffffffffffffffffffff1681526020019081526020016000208190555080600a60008282540192505081905550600d600090806001815401808255809150509060018203906000526020600020016000909192909190915055506106cb565b60018314156105d85760048490806001815401808255809150509060018203906000526020600020016000909192909190916101000a81548173ffffffffffffffffffffffffffffffffffffffff021916908373ffffffffffffffffffffffffffffffffffffffff1602179055505080600560008673ffffffffffffffffffffffffffffffffffffffff1673ffffffffffffffffffffffffffffffffffffffff1681526020019081526020016000208190555080600b60008282540192505081905550600d600190806001815401808255809150509060018203906000526020600020016000909192909190915055506106ca565b60028314156106c95760068490806001815401808255809150509060018203906000526020600020016000909192909190916101000a81548173ffffffffffffffffffffffffffffffffffffffff021916908373ffffffffffffffffffffffffffffffffffffffff1602179055505080600760008673ffffffffffffffffffffffffffffffffffffffff1673ffffffffffffffffffffffffffffffffffffffff1681526020019081526020016000208190555080600c60008282540192505081905550600d600290806001815401808255809150509060018203906000526020600020016000909192909190915055505b5b5b60018290806001815401808255809150509060018203906000526020600020016000909192909190915055507f2b8d3a4a8f9419a272bdc6541fbd7dbd69cd7ae2d06631437c36db3acf3824ea6001604051808215151515815260200191505060405180910390a15b50505050565b600042905090565b600080600080600954600a54600b54600c54935093509350935090919293565b600080600060085442600054925092509250909192565b8173ffffffffffffffffffffffffffffffffffffffff166108fc829081150290604051600060405180830381858888f193505050501580156107bf573d6000803e3d6000fd5b505050565b6060600f80548060200260200160405190810160405280929190818152602001828054801561081257602002820191906000526020600020905b8154815260200190600101908083116107fe575b5050505050905090565b600034905090565b60003073ffffffffffffffffffffffffffffffffffffffff1631905090565b565b6000808190555061085461073a565b60088190555060006001816108699190610d66565b5060006002816108799190610d92565b5060006004816108899190610d92565b5060006006816108999190610d92565b5060006009819055506000600a819055506000600b819055506000600c81905550565b6108c46108d6565b6108cc6109d3565b6108d4610845565b565b60008090505b60018054905081101561091a576001818154811015156108f857fe5b90600052602060002001546000541860008190555080806001019150506108dc565b50565b8073ffffffffffffffffffffffffffffffffffffffff1663ae22c57d306040518263ffffffff167c0100000000000000000000000000000000000000000000000000000000028152600401808273ffffffffffffffffffffffffffffffffffffffff1673ffffffffffffffffffffffffffffffffffffffff168152602001915050600060405180830381600087803b1580156109b857600080fd5b505af11580156109cc573d6000803e3d6000fd5b5050505050565b600080600080600080600060346109ef60005460026004610d31565b8115156109f857fe5b0696506034610a0c60005460086004610d31565b811515610a1557fe5b069550600d87811515610a2457fe5b069450600d86811515610a3357fe5b06935083851115610b2057600092505b600280549050831015610b1b57610b0e600284815481101515610a6257fe5b9060005260206000200160009054906101000a900473ffffffffffffffffffffffffffffffffffffffff16600260036000600288815481101515610aa257fe5b9060005260206000200160009054906101000a900473ffffffffffffffffffffffffffffffffffffffff1673ffffffffffffffffffffffffffffffffffffffff1673ffffffffffffffffffffffffffffffffffffffff1681526020019081526020016000205402610779565b8280600101935050610a43565b610ce9565b83851015610c0a57600091505b600480549050821015610c0557610bf8600483815481101515610b4c57fe5b9060005260206000200160009054906101000a900473ffffffffffffffffffffffffffffffffffffffff16600260056000600487815481101515610b8c57fe5b9060005260206000200160009054906101000a900473ffffffffffffffffffffffffffffffffffffffff1673ffffffffffffffffffffffffffffffffffffffff1673ffffffffffffffffffffffffffffffffffffffff1681526020019081526020016000205402610779565b8180600101925050610b2d565b610ce8565b600090505b600680549050811015610ce757610cda600682815481101515610c2e57fe5b9060005260206000200160009054906101000a900473ffffffffffffffffffffffffffffffffffffffff16600860076000600686815481101515610c6e57fe5b9060005260206000200160009054906101000a900473ffffffffffffffffffffffffffffffffffffffff1673ffffffffffffffffffffffffffffffffffffffff1673ffffffffffffffffffffffffffffffffffffffff1681526020019081526020016000205402610779565b8080600101915050610c0f565b5b5b7fba6c14a6958885d26ded337adfdc2b0047d5b480d41a7534a63ce511e0a9a9cc8787604051808381526020018281526020019250505060405180910390a150505050505050565b6000808284600d0303600a0a84600d03600a0a86811515610d4e57fe5b06811515610d5857fe5b049050809150509392505050565b815481835581811115610d8d57818360005260206000209182019101610d8c9190610dbe565b5b505050565b815481835581811115610db957818360005260206000209182019101610db89190610dbe565b5b505050565b610de091905b80821115610ddc576000816000905550600101610dc4565b5090565b905600a165627a7a723058206b108c7c9177eedd7bf0e98b5fe8e122219b3542f331895561863ef27aa0a7660029",
  "source": "pragma solidity ^0.4.0;\r\n\r\ncontract PlayGame {\r\n    uint xor = 0; // 保存异或的值\r\n    uint [] randomNum; // 保存传入的随机数\r\n    address [] dragon;  // 保存选龙的地址\r\n    mapping(address => uint) dragonMap; // 选龙用户的下注金额\r\n    address [] tiger;   // 保存选虎的地址\r\n    mapping(address => uint) tigerMap; // 选虎用户的下注金额\r\n    address [] draw;    // 保存选合的地址\r\n    mapping(address => uint) drawMap; // 选合用户的下注金额\r\n    uint time = 0; // 保存上一次结算时出块时间戳\r\n    uint totalCoins = 0; // 下注总币\r\n    uint dragonCoins = 0; // 下注龙总币\r\n    uint tigerCoins = 0; // 下注虎总币\r\n    uint drawCoins = 0; // 下注合总币\r\n    uint [] resultHistory; // 保存历史结果\r\n    // 在全局获取的msg.sender为创建者的地址\r\n    // 在函数中获取的msg.sender为当前调用者的地址\r\n    // 函数中返回的this指当前合约地址\r\n    address creator = msg.sender;\r\n    uint [] price;\r\n    // 返回是否下注成功\r\n    event returnBetResult(bool _bool);\r\n    // 返回最终结果\r\n    event returnBetPoints(uint dragonNum, uint tigerNum);\r\n\r\n    function deposit() payable {\r\n\r\n    }\r\n\r\n    function PlayGame(uint price1, uint price2, uint price3, uint _type){\r\n        price = [price1, price2, price3, _type];\r\n    }\r\n\r\n    function getPrice() constant returns (uint []){\r\n        return price;\r\n    }\r\n\r\n    function getBlockTime() constant returns (uint, uint, uint){\r\n        return (time, block.timestamp, xor);\r\n    }\r\n\r\n    // 下注传入信息\r\n    // 如果下注金额大于当前奖池金额，返回false，下注失败\r\n    function sendBetInfo(address addr, uint cho, uint ran, uint coin) payable {\r\n        totalCoins += coin;\r\n        deposit();\r\n        if (getCurrentBalance() / 10 < totalCoins) {\r\n            returnBetResult(false);\r\n        } else {\r\n            if (cho == 0) {\r\n                dragon.push(addr);\r\n                dragonMap[addr] = coin;\r\n                dragonCoins += coin;\r\n                resultHistory.push(0);\r\n            } else if (cho == 1) {\r\n                tiger.push(addr);\r\n                tigerMap[addr] = coin;\r\n                tigerCoins += coin;\r\n                resultHistory.push(1);\r\n            } else if (cho == 2) {\r\n                draw.push(addr);\r\n                drawMap[addr] = coin;\r\n                drawCoins += coin;\r\n                resultHistory.push(2);\r\n            }\r\n            randomNum.push(ran);\r\n            returnBetResult(true);\r\n        }\r\n    }\r\n\r\n    // 异或函数,得到结果随机数\r\n    function xorFun() public {\r\n        for (uint i = 0; i < randomNum.length; i++) {\r\n            xor = xor ^ randomNum[i];\r\n        }\r\n    }\r\n\r\n    // 获取当前出块时间戳 (单位是秒)\r\n    function getTimestamp() constant returns (uint) {\r\n        return block.timestamp;\r\n    }\r\n\r\n    // 处理这个随机数,得到2个值\r\n    function getXorPerson(uint number, uint start, uint long) private returns (uint) {\r\n        uint num = (number % (10 ** (13 - start))) / (10 ** (13 - start - long));\r\n        return num;\r\n    }\r\n\r\n    // num1 => 龙\r\n    // num2 => 虎\r\n    function processXor() payable {\r\n        uint num1 = getXorPerson(xor, 2, 4) % 52;\r\n        uint num2 = getXorPerson(xor, 8, 4) % 52;\r\n        uint dNum = num1 % 13;\r\n        uint tNum = num2 % 13;\r\n        if (dNum > tNum) {\r\n            for (uint i = 0; i < dragon.length; i++) {\r\n                transferCoin(dragon[i], dragonMap[dragon[i]] * 2);\r\n            }\r\n        } else if (dNum < tNum) {\r\n            for (uint j = 0; j < tiger.length; j++) {\r\n                transferCoin(tiger[j], tigerMap[tiger[j]] * 2);\r\n            }\r\n        } else {\r\n            for (uint k = 0; k < draw.length; k++) {\r\n                transferCoin(draw[k], drawMap[draw[k]] * 8);\r\n            }\r\n        }\r\n        returnBetPoints(num1, num2);\r\n    }\r\n\r\n    // 转账函数\r\n    function transferCoin(address _to, uint _coins) {\r\n        _to.transfer(_coins);\r\n    }\r\n\r\n    // 结算函数\r\n    function getResult() {\r\n        //异或后得到了12位的随机数\r\n        xorFun();\r\n        processXor();\r\n        reset();\r\n    }\r\n    // 重置函数\r\n    function reset(){\r\n        xor = 0;\r\n        time = getTimestamp();\r\n        randomNum.length = 0;\r\n        dragon.length = 0;\r\n        tiger.length = 0;\r\n        draw.length = 0;\r\n        totalCoins = 0;\r\n        dragonCoins = 0;\r\n        tigerCoins = 0;\r\n        drawCoins = 0;\r\n    }\r\n    // 返回当前合约账户的余额\r\n    function getCurrentBalance() constant returns (uint256) {\r\n        return this.balance;\r\n    }\r\n\r\n    // 返回下注金额\r\n    function getTotalCoins() constant returns (uint, uint, uint, uint) {\r\n        return (totalCoins, dragonCoins, tigerCoins, drawCoins);\r\n    }\r\n\r\n    function getMsgValue() constant returns (uint) {\r\n        return msg.value;\r\n    }\r\n\r\n    function registerInterval(address contractAddr){\r\n        Interval(contractAddr).getAddress(this);\r\n    }\r\n}\r\n\r\ncontract Interval {\r\n    address [] addr;\r\n\r\n    function getAddress(address _addr) {\r\n        addr.push(_addr);\r\n    }\r\n\r\n    // 后台定时器触发这个函数就可以了\r\n    function trigger(){\r\n        for (uint i = 0; i < addr.length; i++) {\r\n            callFeed(addr[i]);\r\n        }\r\n    }\r\n\r\n    function getAddrLen() constant returns (uint){\r\n        return addr.length;\r\n    }\r\n\r\n    function chargeExist(address _addr) returns (bool){\r\n        bool flag = false;\r\n        for (uint i = 0; i < addr.length; i++) {\r\n            if (addr[i] == _addr) {\r\n                flag = true;\r\n            }\r\n        }\r\n        return flag;\r\n    }\r\n\r\n    // 传入合约地址\r\n    function callFeed(address addr) {\r\n        PlayGame(addr).getResult();\r\n    }\r\n}",
  "sourcePath": "E:\\truffle\\contracts\\playGame.sol",
  "compiler": {
    "name": "solc",
    "version": "0.4.23+commit.124ca40d.Emscripten.clang"
  },
  "schemaVersion": "2.0.0",
  "updatedAt": "2018-05-22T09:58:51.932Z"
}