{
    "contractName": "PlayGame",
    "abi": [
        {
            "inputs": [
                {
                    "name": "price1",
                    "type": "uint256"
                },
                {
                    "name": "price2",
                    "type": "uint256"
                },
                {
                    "name": "price3",
                    "type": "uint256"
                },
                {
                    "name": "_type",
                    "type": "uint256"
                }
            ],
            "payable": false,
            "stateMutability": "nonpayable",
            "type": "constructor"
        },
        {
            "anonymous": false,
            "inputs": [
                {
                    "indexed": false,
                    "name": "_bool",
                    "type": "bool"
                }
            ],
            "name": "returnBetResult",
            "type": "event"
        },
        {
            "constant": false,
            "inputs": [],
            "name": "deposit",
            "outputs": [],
            "payable": true,
            "stateMutability": "payable",
            "type": "function"
        },
        {
            "constant": true,
            "inputs": [],
            "name": "getPrice",
            "outputs": [
                {
                    "name": "",
                    "type": "uint256[]"
                }
            ],
            "payable": false,
            "stateMutability": "view",
            "type": "function"
        },
        {
            "constant": true,
            "inputs": [],
            "name": "getBlockTime",
            "outputs": [
                {
                    "name": "",
                    "type": "uint256"
                },
                {
                    "name": "",
                    "type": "uint256"
                },
                {
                    "name": "",
                    "type": "uint256"
                },
                {
                    "name": "",
                    "type": "address"
                },
                {
                    "name": "",
                    "type": "uint256[]"
                },
                {
                    "name": "",
                    "type": "int256"
                }
            ],
            "payable": false,
            "stateMutability": "view",
            "type": "function"
        },
        {
            "constant": true,
            "inputs": [],
            "name": "getResultHistory",
            "outputs": [
                {
                    "name": "",
                    "type": "uint256[]"
                }
            ],
            "payable": false,
            "stateMutability": "view",
            "type": "function"
        },
        {
            "constant": false,
            "inputs": [
                {
                    "name": "addr",
                    "type": "address"
                },
                {
                    "name": "cho",
                    "type": "uint256"
                },
                {
                    "name": "ran",
                    "type": "uint256"
                },
                {
                    "name": "coin",
                    "type": "uint256"
                }
            ],
            "name": "sendBetInfo",
            "outputs": [],
            "payable": true,
            "stateMutability": "payable",
            "type": "function"
        },
        {
            "constant": false,
            "inputs": [],
            "name": "xorFun",
            "outputs": [],
            "payable": false,
            "stateMutability": "nonpayable",
            "type": "function"
        },
        {
            "constant": true,
            "inputs": [],
            "name": "getTimestamp",
            "outputs": [
                {
                    "name": "",
                    "type": "uint256"
                }
            ],
            "payable": false,
            "stateMutability": "view",
            "type": "function"
        },
        {
            "constant": false,
            "inputs": [],
            "name": "processXor",
            "outputs": [],
            "payable": true,
            "stateMutability": "payable",
            "type": "function"
        },
        {
            "constant": false,
            "inputs": [
                {
                    "name": "_to",
                    "type": "address"
                },
                {
                    "name": "_coins",
                    "type": "uint256"
                }
            ],
            "name": "transferCoin",
            "outputs": [],
            "payable": false,
            "stateMutability": "nonpayable",
            "type": "function"
        },
        {
            "constant": false,
            "inputs": [
                {
                    "name": "_coin",
                    "type": "uint256"
                }
            ],
            "name": "drawings",
            "outputs": [],
            "payable": true,
            "stateMutability": "payable",
            "type": "function"
        },
        {
            "constant": false,
            "inputs": [],
            "name": "getResult",
            "outputs": [],
            "payable": false,
            "stateMutability": "nonpayable",
            "type": "function"
        },
        {
            "constant": false,
            "inputs": [],
            "name": "reset",
            "outputs": [],
            "payable": false,
            "stateMutability": "nonpayable",
            "type": "function"
        },
        {
            "constant": true,
            "inputs": [],
            "name": "getCurrentBalance",
            "outputs": [
                {
                    "name": "",
                    "type": "uint256"
                }
            ],
            "payable": false,
            "stateMutability": "view",
            "type": "function"
        },
        {
            "constant": true,
            "inputs": [],
            "name": "getTotalCoins",
            "outputs": [
                {
                    "name": "",
                    "type": "uint256"
                },
                {
                    "name": "",
                    "type": "uint256"
                },
                {
                    "name": "",
                    "type": "uint256"
                },
                {
                    "name": "",
                    "type": "uint256"
                }
            ],
            "payable": false,
            "stateMutability": "view",
            "type": "function"
        },
        {
            "constant": true,
            "inputs": [],
            "name": "getMsgValue",
            "outputs": [
                {
                    "name": "",
                    "type": "uint256"
                }
            ],
            "payable": false,
            "stateMutability": "view",
            "type": "function"
        },
        {
            "constant": false,
            "inputs": [
                {
                    "name": "rContractAddr",
                    "type": "address"
                }
            ],
            "name": "registerInterval",
            "outputs": [],
            "payable": false,
            "stateMutability": "nonpayable",
            "type": "function"
        }
    ],
    "bytecode": "0x608060405260008055600060015560006009556000600a556000600b556000600c556000600d556000600e556040805190810160405280600060ff168152602001600060ff1681525060109060026200005a9291906200012a565b5033601160006101000a81548173ffffffffffffffffffffffffffffffffffffffff021916908373ffffffffffffffffffffffffffffffffffffffff160217905550348015620000a957600080fd5b50604051608080620018ca833981018060405281019080805190602001909291908051906020019092919080519060200190929190805190602001909291905050506080604051908101604052808581526020018481526020018381526020018281525060129060046200011f92919062000181565b5050505050620001fb565b8280548282559060005260206000209081019282156200016e579160200282015b828111156200016d578251829060ff169055916020019190600101906200014b565b5b5090506200017d9190620001d3565b5090565b828054828255906000526020600020908101928215620001c0579160200282015b82811115620001bf578251825591602001919060010190620001a2565b5b509050620001cf9190620001d3565b5090565b620001f891905b80821115620001f4576000816000905550600101620001da565b5090565b90565b6116bf806200020b6000396000f3006080604052600436106100e6576000357c0100000000000000000000000000000000000000000000000000000000900463ffffffff1680630366fc49146100eb578063070e0dd71461010b578063188ec3561461015f578063289fc9d21461018a57806387ceff09146101ca5780638dde60fa1461028557806398d5fdca146102d2578063a17042cc1461033e578063a574971014610369578063b110e67b14610394578063d0e30db014610400578063d826f88f1461040a578063de29278914610421578063e188ce5414610438578063f532cbbd1461044f578063f95d9b1514610492575b600080fd5b6101096004803603810190808035906020019092919050505061049c565b005b61015d600480360381019080803573ffffffffffffffffffffffffffffffffffffffff169060200190929190803590602001909291908035906020019092919080359060200190929190505050610548565b005b34801561016b57600080fd5b50610174610c4c565b6040518082815260200191505060405180910390f35b34801561019657600080fd5b5061019f610c54565b6040518085815260200184815260200183815260200182815260200194505050505060405180910390f35b3480156101d657600080fd5b506101df610c74565b604051808781526020018681526020018581526020018473ffffffffffffffffffffffffffffffffffffffff1673ffffffffffffffffffffffffffffffffffffffff16815260200180602001838152602001828103825284818151815260200191508051906020019060200280838360005b8381101561026c578082015181840152602081019050610251565b5050505090500197505050505050505060405180910390f35b34801561029157600080fd5b506102d0600480360381019080803573ffffffffffffffffffffffffffffffffffffffff16906020019092919080359060200190929190505050610d13565b005b3480156102de57600080fd5b506102e7610d5e565b6040518080602001828103825283818151815260200191508051906020019060200280838360005b8381101561032a57808201518184015260208101905061030f565b505050509050019250505060405180910390f35b34801561034a57600080fd5b50610353610db6565b6040518082815260200191505060405180910390f35b34801561037557600080fd5b5061037e610dbe565b6040518082815260200191505060405180910390f35b3480156103a057600080fd5b506103a9610ddd565b6040518080602001828103825283818151815260200191508051906020019060200280838360005b838110156103ec5780820151818401526020810190506103d1565b505050509050019250505060405180910390f35b610408610e35565b005b34801561041657600080fd5b5061041f610e37565b005b34801561042d57600080fd5b50610436610eaf565b005b34801561044457600080fd5b5061044d610ef5565b005b34801561045b57600080fd5b50610490600480360381019080803573ffffffffffffffffffffffffffffffffffffffff169060200190929190505050610f78565b005b61049a61102e565b005b6000601160009054906101000a900473ffffffffffffffffffffffffffffffffffffffff1673ffffffffffffffffffffffffffffffffffffffff163373ffffffffffffffffffffffffffffffffffffffff161415610544576104fc610dbe565b9050600a54600a83830381151561050f57fe5b04111561054357610542601160009054906101000a900473ffffffffffffffffffffffffffffffffffffffff1683610d13565b5b5b5050565b60008060008060008086600a60008282540192505081905550610569610e35565b600a54600a610576610dbe565b81151561057f57fe5b0410156105e15786600a600082825403925050819055506105a08a88610d13565b7f2b8d3a4a8f9419a272bdc6541fbd7dbd69cd7ae2d06631437c36db3acf3824ea6000604051808215151515815260200191505060405180910390a1610c40565b86600b6000828254019250508190555060008914156107e95760009550600094505b600380549050851015610693578973ffffffffffffffffffffffffffffffffffffffff1660038681548110151561063657fe5b9060005260206000200160009054906101000a900473ffffffffffffffffffffffffffffffffffffffff1673ffffffffffffffffffffffffffffffffffffffff1614156106865760019550610693565b8480600101955050610603565b8515156107015760038a90806001815401808255809150509060018203906000526020600020016000909192909190916101000a81548173ffffffffffffffffffffffffffffffffffffffff021916908373ffffffffffffffffffffffffffffffffffffffff160217905550505b6000600460008c73ffffffffffffffffffffffffffffffffffffffff1673ffffffffffffffffffffffffffffffffffffffff168152602001908152602001600020541461074e5786610791565b86600460008c73ffffffffffffffffffffffffffffffffffffffff1673ffffffffffffffffffffffffffffffffffffffff16815260200190815260200160002054015b600460008c73ffffffffffffffffffffffffffffffffffffffff1673ffffffffffffffffffffffffffffffffffffffff1681526020019081526020016000208190555086600c60008282540192505081905550610bd7565b60018914156109e15760009350600092505b60058054905083101561088b578973ffffffffffffffffffffffffffffffffffffffff1660058481548110151561082e57fe5b9060005260206000200160009054906101000a900473ffffffffffffffffffffffffffffffffffffffff1673ffffffffffffffffffffffffffffffffffffffff16141561087e576001935061088b565b82806001019350506107fb565b8315156108f95760058a90806001815401808255809150509060018203906000526020600020016000909192909190916101000a81548173ffffffffffffffffffffffffffffffffffffffff021916908373ffffffffffffffffffffffffffffffffffffffff160217905550505b6000600660008c73ffffffffffffffffffffffffffffffffffffffff1673ffffffffffffffffffffffffffffffffffffffff16815260200190815260200160002054146109465786610989565b86600660008c73ffffffffffffffffffffffffffffffffffffffff1673ffffffffffffffffffffffffffffffffffffffff16815260200190815260200160002054015b600660008c73ffffffffffffffffffffffffffffffffffffffff1673ffffffffffffffffffffffffffffffffffffffff1681526020019081526020016000208190555086600d60008282540192505081905550610bd6565b6002891415610bd55760009150600090505b600780549050811015610a83578973ffffffffffffffffffffffffffffffffffffffff16600786815481101515610a2657fe5b9060005260206000200160009054906101000a900473ffffffffffffffffffffffffffffffffffffffff1673ffffffffffffffffffffffffffffffffffffffff161415610a765760019150610a83565b80806001019150506109f3565b811515610af15760078a90806001815401808255809150509060018203906000526020600020016000909192909190916101000a81548173ffffffffffffffffffffffffffffffffffffffff021916908373ffffffffffffffffffffffffffffffffffffffff160217905550505b6000600860008c73ffffffffffffffffffffffffffffffffffffffff1673ffffffffffffffffffffffffffffffffffffffff1681526020019081526020016000205414610b3e5786610b81565b86600860008c73ffffffffffffffffffffffffffffffffffffffff1673ffffffffffffffffffffffffffffffffffffffff16815260200190815260200160002054015b600860008c73ffffffffffffffffffffffffffffffffffffffff1673ffffffffffffffffffffffffffffffffffffffff1681526020019081526020016000208190555086600e600082825401925050819055505b5b5b60028890806001815401808255809150509060018203906000526020600020016000909192909190915055507f2b8d3a4a8f9419a272bdc6541fbd7dbd69cd7ae2d06631437c36db3acf3824ea6001604051808215151515815260200191505060405180910390a15b50505050505050505050565b600042905090565b600080600080600b54600c54600d54600e54935093509350935090919293565b6000806000806060600060095442600154601160009054906101000a900473ffffffffffffffffffffffffffffffffffffffff16601060005481805480602002602001604051908101604052809291908181526020018280548015610cf857602002820191906000526020600020905b815481526020019060010190808311610ce4575b50505050509150955095509550955095509550909192939495565b8173ffffffffffffffffffffffffffffffffffffffff166108fc829081150290604051600060405180830381858888f19350505050158015610d59573d6000803e3d6000fd5b505050565b60606012805480602002602001604051908101604052809291908181526020018280548015610dac57602002820191906000526020600020905b815481526020019060010190808311610d98575b5050505050905090565b600034905090565b60003073ffffffffffffffffffffffffffffffffffffffff1631905090565b6060600f805480602002602001604051908101604052809291908181526020018280548015610e2b57602002820191906000526020600020905b815481526020019060010190808311610e17575b5050505050905090565b565b6000600181905550610e47610c4c565b6009819055506000600281610e5c9190611616565b506000600381610e6c9190611642565b506000600581610e7c9190611642565b506000600781610e8c9190611642565b506000600a819055506000600c819055506000600d819055506000600e81905550565b6000610eb9610c4c565b9050600a60095482031115610ef2576000808154809291906001019190505550610ee1610ef5565b610ee961102e565b610ef1610e37565b5b50565b60008090505b600280549050811015610f3957600281815481101515610f1757fe5b9060005260206000200154600154186001819055508080600101915050610efb565b64e8d4a5100044426040518083815260200182815260200192505050604051809103902060019004811515610f6a57fe5b066001541860018190555050565b8073ffffffffffffffffffffffffffffffffffffffff1663ae22c57d306040518263ffffffff167c0100000000000000000000000000000000000000000000000000000000028152600401808273ffffffffffffffffffffffffffffffffffffffff1673ffffffffffffffffffffffffffffffffffffffff168152602001915050600060405180830381600087803b15801561101357600080fd5b505af1158015611027573d6000803e3d6000fd5b5050505050565b60008060008060008060008060008060006034611050600154600260046115e1565b81151561105957fe5b069a50603461106d600154600860046115e1565b81151561107657fe5b069950600d8b81151561108557fe5b069850600d8a81151561109457fe5b069750603296508789111561124857600095505b600380549050861015611180576111736003878154811015156110c757fe5b9060005260206000200160009054906101000a900473ffffffffffffffffffffffffffffffffffffffff1660026004600060038b81548110151561110757fe5b9060005260206000200160009054906101000a900473ffffffffffffffffffffffffffffffffffffffff1673ffffffffffffffffffffffffffffffffffffffff1673ffffffffffffffffffffffffffffffffffffffff1681526020019081526020016000205402610d13565b85806001019650506110a8565b86600f8054905010156111bf57600f60009080600181540180825580915050906001820390600052602060002001600090919290919091505550611243565b600094505b6001600f805490500385101561121b57600f600186018154811015156111e657fe5b9060005260206000200154600f8681548110151561120057fe5b906000526020600020018190555084806001019550506111c4565b6000600f6001600f805490500381548110151561123457fe5b90600052602060002001819055505b611596565b878910156113f557600093505b60058054905084101561132d5761132060058581548110151561127457fe5b9060005260206000200160009054906101000a900473ffffffffffffffffffffffffffffffffffffffff166002600660006005898154811015156112b457fe5b9060005260206000200160009054906101000a900473ffffffffffffffffffffffffffffffffffffffff1673ffffffffffffffffffffffffffffffffffffffff1673ffffffffffffffffffffffffffffffffffffffff1681526020019081526020016000205402610d13565b8380600101945050611255565b86600f80549050101561136c57600f600190806001815401808255809150509060018203906000526020600020016000909192909190915055506113f0565b600092505b6001600f80549050038310156113c857600f6001840181548110151561139357fe5b9060005260206000200154600f848154811015156113ad57fe5b90600052602060002001819055508280600101935050611371565b6001600f6001600f80549050038154811015156113e157fe5b90600052602060002001819055505b611595565b600091505b6007805490508210156114d1576114c460078381548110151561141957fe5b9060005260206000200160009054906101000a900473ffffffffffffffffffffffffffffffffffffffff16600880600060078781548110151561145857fe5b9060005260206000200160009054906101000a900473ffffffffffffffffffffffffffffffffffffffff1673ffffffffffffffffffffffffffffffffffffffff1673ffffffffffffffffffffffffffffffffffffffff1681526020019081526020016000205402610d13565b81806001019250506113fa565b86600f80549050101561151057600f60029080600181540180825580915050906001820390600052602060002001600090919290919091505550611594565b600090505b6001600f805490500381101561156c57600f6001820181548110151561153757fe5b9060005260206000200154600f8281548110151561155157fe5b90600052602060002001819055508080600101915050611515565b6002600f6001600f805490500381548110151561158557fe5b90600052602060002001819055505b5b5b8a601060008154811015156115a757fe5b906000526020600020018190555089601060018154811015156115c657fe5b90600052602060002001819055505050505050505050505050565b6000808284600d0303600a0a84600d03600a0a868115156115fe57fe5b0681151561160857fe5b049050809150509392505050565b81548183558181111561163d5781836000526020600020918201910161163c919061166e565b5b505050565b81548183558181111561166957818360005260206000209182019101611668919061166e565b5b505050565b61169091905b8082111561168c576000816000905550600101611674565b5090565b905600a165627a7a72305820d4116d904ec777a7b0c225219957418ea9fc774edabda7f2dafb329d5e54cdb90029",
    "source": "pragma solidity ^0.4.0;\r\n\r\ncontract PlayGame {\r\n    int uNumTest = 0; // test\r\n    uint xor = 0; // 保存异或的值\r\n    uint [] randomNum; // 保存传入的随机数\r\n    address [] dragon;  // 保存选龙的地址\r\n    mapping(address => uint) dragonMap; // 选龙用户的下注金额 需要清空\r\n    address [] tiger;   // 保存选虎的地址\r\n    mapping(address => uint) tigerMap; // 选虎用户的下注金额\r\n    address [] draw;    // 保存选合的地址\r\n    mapping(address => uint) drawMap; // 选合用户的下注金额\r\n    uint time = 0; // 保存上一次结算时出块时间戳\r\n    uint totalCoins = 0; // 当前局下注总币\r\n    uint historyTotalCoins = 0; // 历史下注总币\r\n    uint dragonCoins = 0; // 下注龙总币\r\n    uint tigerCoins = 0; // 下注虎总币\r\n    uint drawCoins = 0; // 下注合总币\r\n    uint [] resultHistory; // 保存历史结果\r\n    uint [] currentResult = [0, 0]; // 保存当前局结算后的龙虎值\r\n    // 在全局获取的msg.sender为创建者的地址\r\n    // 在函数中获取的msg.sender为当前调用者的地址\r\n    // 函数中返回的this指当前合约地址\r\n    address creator = msg.sender;\r\n    uint [] price;\r\n    // 返回是否下注成功\r\n    event returnBetResult(bool _bool);\r\n    // 返回最终结果\r\n\r\n    function deposit() payable {\r\n\r\n    }\r\n\r\n    function PlayGame(uint price1, uint price2, uint price3, uint _type){\r\n        price = [price1, price2, price3, _type];\r\n    }\r\n    // 获取自己设置的下注金额列表\r\n    function getPrice() constant returns (uint []){\r\n        return price;\r\n    }\r\n\r\n    function getBlockTime() constant returns (uint, uint, uint, address, uint [], int){\r\n        return (time, block.timestamp, xor, creator, currentResult, uNumTest);\r\n    }\r\n    // 获取最后五局的结果\r\n    function getResultHistory() constant returns (uint []){\r\n        return resultHistory;\r\n    }\r\n\r\n    // 下注传入信息\r\n    // 如果下注金额大于当前奖池金额，返回false，下注失败\r\n    function sendBetInfo(address addr, uint cho, uint ran, uint coin) payable {\r\n        totalCoins += coin;\r\n        deposit();\r\n        if (getCurrentBalance() / 10 < totalCoins) {\r\n            totalCoins -= coin;\r\n            transferCoin(addr, coin);\r\n            returnBetResult(false);\r\n        } else {\r\n            historyTotalCoins += coin;\r\n            if (cho == 0) {\r\n                bool flag0 = false;\r\n                for (uint i = 0; i < dragon.length; i++) {\r\n                    if (dragon[i] == addr) {\r\n                        flag0 = true;\r\n                        break;\r\n                    }\r\n                }\r\n                if (!flag0) {\r\n                    dragon.push(addr);\r\n                }\r\n                dragonMap[addr] = dragonMap[addr] == 0 ? (dragonMap[addr] + coin) : coin;\r\n                dragonCoins += coin;\r\n            } else if (cho == 1) {\r\n                bool flag1 = false;\r\n                for (uint j = 0; j < tiger.length; j++) {\r\n                    if (tiger[j] == addr) {\r\n                        flag1 = true;\r\n                        break;\r\n                    }\r\n                }\r\n                if (!flag1) {\r\n                    tiger.push(addr);\r\n                }\r\n                tigerMap[addr] = tigerMap[addr] == 0 ? (tigerMap[addr] + coin) : coin;\r\n                tigerCoins += coin;\r\n            } else if (cho == 2) {\r\n                bool flag2 = false;\r\n                for (uint k = 0; k < draw.length; k++) {\r\n                    if (draw[i] == addr) {\r\n                        flag2 = true;\r\n                        break;\r\n                    }\r\n                }\r\n                if (!flag2) {\r\n                    draw.push(addr);\r\n                }\r\n                drawMap[addr] = drawMap[addr] == 0 ? (drawMap[addr] + coin) : coin;\r\n                drawCoins += coin;\r\n            }\r\n            randomNum.push(ran);\r\n            returnBetResult(true);\r\n        }\r\n    }\r\n\r\n    // 异或函数,得到结果随机数\r\n    function xorFun() public {\r\n        for (uint i = 0; i < randomNum.length; i++) {\r\n            xor = xor ^ randomNum[i];\r\n        }\r\n        xor = xor ^ (uint256(keccak256(block.difficulty, now)) % 1000000000000);\r\n    }\r\n\r\n    // 获取当前出块时间戳 (单位是秒)\r\n    function getTimestamp() constant returns (uint) {\r\n        return block.timestamp;\r\n    }\r\n\r\n    // 处理这个随机数,得到2个值\r\n    function getXorPerson(uint number, uint start, uint long) private returns (uint) {\r\n        uint num = (number % (10 ** (13 - start))) / (10 ** (13 - start - long));\r\n        return num;\r\n    }\r\n\r\n    // num1 => 龙\r\n    // num2 => 虎\r\n    function processXor() payable {\r\n        uint num1 = getXorPerson(xor, 2, 4) % 52;\r\n        uint num2 = getXorPerson(xor, 8, 4) % 52;\r\n        uint dNum = num1 % 13;\r\n        uint tNum = num2 % 13;\r\n        uint nSize = 50;\r\n        if (dNum > tNum) {\r\n            for (uint i = 0; i < dragon.length; i++) {\r\n                transferCoin(dragon[i], dragonMap[dragon[i]] * 2);\r\n            }\r\n            if (resultHistory.length < nSize) {\r\n                resultHistory.push(0);\r\n            } else {\r\n                for (uint o = 0; o < resultHistory.length - 1; o++) {\r\n                    resultHistory[o] = resultHistory[o + 1];\r\n                }\r\n                resultHistory[resultHistory.length - 1] = 0;\r\n            }\r\n        } else if (dNum < tNum) {\r\n            for (uint j = 0; j < tiger.length; j++) {\r\n                transferCoin(tiger[j], tigerMap[tiger[j]] * 2);\r\n            }\r\n            if (resultHistory.length < nSize) {\r\n                resultHistory.push(1);\r\n            } else {\r\n                for (uint p = 0; p < resultHistory.length - 1; p++) {\r\n                    resultHistory[p] = resultHistory[p + 1];\r\n                }\r\n                resultHistory[resultHistory.length - 1] = 1;\r\n            }\r\n        } else {\r\n            for (uint k = 0; k < draw.length; k++) {\r\n                transferCoin(draw[k], drawMap[draw[k]] * 8);\r\n            }\r\n            if (resultHistory.length < nSize) {\r\n                resultHistory.push(2);\r\n            } else {\r\n                for (uint q = 0; q < resultHistory.length - 1; q++) {\r\n                    resultHistory[q] = resultHistory[q + 1];\r\n                }\r\n                resultHistory[resultHistory.length - 1] = 2;\r\n            }\r\n        }\r\n        currentResult[0] = num1;\r\n        currentResult[1] = num2;\r\n    }\r\n\r\n    // 转账函数\r\n    function transferCoin(address _to, uint _coins) {\r\n        _to.transfer(_coins);\r\n    }\r\n    // 提现函数,只有创建者账户可以提现\r\n    function drawings(uint _coin) payable {\r\n        if (msg.sender == creator) {\r\n            uint _balance = getCurrentBalance();\r\n            if ((_balance - _coin) / 10 > totalCoins) {\r\n                transferCoin(creator, _coin);\r\n            }\r\n        }\r\n    }\r\n    // 结算函数\r\n    function getResult() {\r\n        uint _times = getTimestamp();\r\n        if (_times - time > 10) {\r\n            uNumTest++;\r\n            //异或后得到了12位的随机数\r\n            xorFun();\r\n            processXor();\r\n            reset();\r\n        }\r\n\r\n    }\r\n    // 重置函数\r\n    function reset(){\r\n        xor = 0;\r\n        time = getTimestamp();\r\n        randomNum.length = 0;\r\n        dragon.length = 0;\r\n        tiger.length = 0;\r\n        draw.length = 0;\r\n        totalCoins = 0;\r\n        dragonCoins = 0;\r\n        tigerCoins = 0;\r\n        drawCoins = 0;\r\n    }\r\n    // 返回当前合约账户的余额\r\n    function getCurrentBalance() constant returns (uint256) {\r\n        return this.balance;\r\n    }\r\n\r\n    // 返回下注金额\r\n    function getTotalCoins() constant returns (uint, uint, uint, uint) {\r\n        return (historyTotalCoins, dragonCoins, tigerCoins, drawCoins);\r\n    }\r\n\r\n    function getMsgValue() constant returns (uint) {\r\n        return msg.value;\r\n    }\r\n\r\n    function registerInterval(address rContractAddr){\r\n        Interval(rContractAddr).getAddress(this);\r\n    }\r\n}\r\n\r\ncontract Interval {\r\n    address [] intervalAddr;\r\n    uint nNumTest = 0;\r\n    uint nNumTestTotal = 0;\r\n    bool flagSign = false;\r\n\r\n    function getAddress(address _getAddr) {\r\n        intervalAddr.push(_getAddr);\r\n    }\r\n\r\n    // 后台定时器触发这个函数就可以了\r\n    function trigger(){\r\n        flagSign = false;\r\n        nNumTestTotal++;\r\n        for (uint i = 0; i < intervalAddr.length; i++) {\r\n            nNumTest++;\r\n            callFeed(intervalAddr[i]);\r\n        }\r\n    }\r\n\r\n    function getAddrLen() constant returns (address []){\r\n        return (intervalAddr);\r\n    }\r\n\r\n    function getTestNum() constant returns (uint, uint){\r\n        return (nNumTest, nNumTestTotal);\r\n    }\r\n\r\n    function getFlag() constant returns (bool){\r\n        return flagSign;\r\n    }\r\n\r\n    function chargeExist(address _addr) returns (bool){\r\n        bool flag = false;\r\n        for (uint i = 0; i < intervalAddr.length; i++) {\r\n            if (intervalAddr[i] == _addr) {\r\n                flag = true;\r\n            }\r\n        }\r\n        return flag;\r\n    }\r\n\r\n    // 传入合约地址\r\n    function callFeed(address contractAddr) {\r\n        flagSign = true;\r\n        PlayGame(contractAddr).getResult();\r\n    }\r\n}",
    "sourcePath": "E:\\truffle\\contracts\\playGame.sol",
    "compiler": {
        "name": "solc",
        "version": "0.4.23+commit.124ca40d.Emscripten.clang"
    },
    "schemaVersion": "2.0.0",
    "updatedAt": "2018-06-04T08:57:31.898Z"
}